S0130000466561746865725F554C502E7372656302
S1130000402100209D4000003141000031410000AA
S113001000000000000000000000000000000000DC
S1130020000000000000000000000000314100005A
S113003000000000000000003141000031410000D8
S113004031410000BD310000CD13000031410000FA
S113005031410000314100003141000031410000D4
S113006031410000314100003141000031410000C4
S113007031410000314100003141000031410000B4
S113008031410000314100003141000031410000A4
S11300903141000031410000AD0B0000314100004E
S11300A03141000031410000314100003141000084
S11300B00000000010B5064C2378002B07D1054B37
S11300C0002B02D0044800E000BF0123237010BDC0
S11300D010000020000000006C6A0000084B10B5FE
S11300E0002B03D00749084800E000BF0748036815
S11300F0002B00D110BD064B002BFBD09847F9E72D
S113010000000000140000206C6A00006C6A00000B
S11301100000000080B582B000AF78607B680022E8
S11301201A70C046BD4602B080BD000080B582B0E2
S113013000AF02003960FB1D1A70FB1D1B78042BF5
S113014027D89A00164BD3181B689F46154B154A9F
S113015051693A680A435A611DE0124B114A916988
S11301603A680A439A6116E00E4B0E4AD1693A681E
S11301700A43DA610FE00B4B0A4A116A3A680A43F0
S11301801A6208E0074B074A516A3A680A435A62FE
S113019001E0172300E000231800BD4602B080BD33
S11301A0546700000004004080B582B000AF78605E
S11301B07B6880221A707B6800225A707B68012257
S11301C09A707B680022DA70C046BD4602B080BDDA
S11301D080B582B000AF0200FB1D1A70FB1D1B78B6
S11301E0002B02D0012B07D00DE0084B074AD2693F
S11301F002210A43DA6106E0044B044AD26904216D
S11302000A43DA61C046BD4602B080BD0014004016
S113021080B584B000AF78607B681B68FB60FB68C6
S11302201B8C9BB2002B01D0012300E0002318009B
S1130230BD4604B080BD000080B584B000AF7860D6
S11302400E4BBB600023FB6010E0FB689B00102298
S11302509446BC446344083B1A687B689A4202D1C2
S1130260FB68DBB206E0FB680133FB60FB68002B34
S1130270EBD000231800BD4604B080BD000C004341
S113028080B582B000AF78607B6800221A707B680A
S113029000225A707B6800229A707B680022DA7010
S11302A07B6800221A837B6800221A627B68002222
S11302B0DA617B6801221A717B68C0225201DA80FC
S11302C07B6800221A727B6800225A727B680022C3
S11302D09A727B680022DA727B6800221A737B6848
S11302E02A22002199547B6800225A737B680022D9
S11302F09A737B680022DA737B6800221A617B6838
S113030000221A757B682422002199547B680022FC
S1130310DA847B6800221A857B6800225A75C046FD
S1130320BD4602B080BD000080B59CB000AF0200A5
S11303303960FB1D1A700C23FA18164B10001900B3
S113034060231A00144B9847144BFB6613223B6836
S11303509A421AD30C23FB183A689200D358FB66CE
S11303600823FB1818000E4B98470823FB1800229B
S11303709A700823FB1801221A70FB6EDBB2082264
S1130380BA1811001800074B9847C046BD461CB068
S113039080BDC0466867000031670000FFFF0000B1
S11303A0A90100001540000080B58AB000AFB96013
S11303B07A600F23FB18021C1A702723FB180022F3
S11303C01A7010233B621F23FB1800221A70BB68AB
S11303D01B68BB611423FB181800C54B98477B6846
S11303E01A781423FB181A701E221423FB18190000
S11303F01000C04B98471E231800BF4B98477B68DA
S11304001B791A000F23FB181B7811001800BB4B33
S113041098477B68DB881A000F23FB181B781100B0
S11304201800B64B98471E23FB1800221A701AE0D6
S11304307B681B691E22BA181278012191400A00B8
S1130440134009D01E23FB181A780F23FB181B78BE
S113045011001800A94B98471E23FB181A781E2375
S1130460FB1801321A701E23FB181B7813229342C7
S1130470DED97B685B7B9B015AB27B689B7BDB018B
S11304805BB213435BB2DAB2BB691A707B681B7D43
S1130490DB015AB27B685B785BB213435BB2DAB2BE
S11304A0BB699A707B68DB78342B46D89A00944BEE
S11304B0D3181B689F462723FB187A68527A1A7050
S11304C01F23FB187A68127A1A7010233B6236E0F5
S11304D02723FB1801221A701F23FB1802221A700B
S11304E010233B622BE02723FB1802221A701F23E0
S11304F0FB1804221A7010233B6220E02723FB1808
S113050001221A701F23FB1806221A7010233B6263
S113051015E02723FB1800221A701F23FB1808225A
S11305201A7010233B620AE030233B6207E0202369
S11305303B6204E000233B6201E01723A7E1272389
S1130540FB181B781B01DBB270221340DAB21F23A5
S1130550FB181B781343DAB2BB691A73C046BB6835
S11305601800684B9847031EF9D17B685B7D3F2BCD
S113057001D917238BE17B685B7D5AB27B68DB7BF7
S1130580DB015BB213435BB2DAB2BB695A73C04698
S1130590BB6818005B4B9847031EF9D17B689A78B7
S11305A0BB695A707B6824229B5C9BB2DB009AB2C5
S11305B03B6A9BB213439AB27B681B7B9BB29B0042
S11305C09BB213439AB27B689B7A9BB2DB189BB2B3
S11305D013439AB27B68DB7A9BB213439AB2BB692A
S11305E05A81C046BB681800464B9847031EF9D190
S11305F07B681B8B002B00D1BFE03B6A102B00D122
S11306008EE002D8002B4DD0B7E0202B23D0302B26
S113061000D0B2E07B68DB7A002B11D07B68DB6909
S11306207F2B0BDC7B68DB69803307DB7B681B6A11
S11306307F2B03DC7B681B6A803301DA172326E1F6
S11306407B68DB69FF2B04DC7B681B6AFF2B00DC07
S11306508CE017231BE17B68DB7A002B15D07B68C9
S1130660DB69294A93420EDC7B68DB69274A9342A3
S113067009DB7B681B6A244A934204DC7B681B6A9F
S1130680224A934201DA172301E17B68DB69204A9D
S1130690934205DC7B681B6A1D4A934200DC67E0D9
S11306A01723F4E07B68DB7A002B15D07B68DB69C9
S11306B0184A93420EDC7B68DB69174A934209DBD4
S11306C07B681B6A134A934204DC7B681B6A124AE8
S11306D0934201DA1723DAE07B68DB690F4A93421D
S11306E004DC7B681B6A0D4A934243DD1723CEE08A
S11306F015010000613D0000A13D00002903000038
S1130700C867000011020000FF01000000FEFFFFA7
S1130710FF030000FF07000000F8FFFFFF0F0000C9
S11307207B68DB7A002B15D07B68DB695A4A9342DD
S11307300EDC7B68DB69594A934209DB7B681B6AE0
S1130740554A934204DC7B681B6A544A934201DA9B
S113075017239CE07B68DB69514A934204DC7B6885
S11307601B6A4F4A934207DD172390E0C04604E01A
S1130770C04602E0C04600E0C046BB695B899AB24D
S11307807B681B8B13439AB2BB695A81C046BB6812
S11307901800444B9847031EF9D17B68DB699AB271
S11307A0BB69DA81C046BB6818003E4B9847031EFC
S11307B0F9D17B681B6A9AB2BB691A82C046BB68CE
S11307C01800384B9847031EF9D17B68DA887B6898
S11307D01B799BB213439AB2BB691A81C046BB68AA
S11307E01800304B9847031EF9D17B682A229A5C83
S11307F0BB69DA70BB6907221A717B6824229B5C8F
S1130800002B2CD07B68DB8C274A934201D9172319
S11308103DE07B68DA8CBB695A82C046BB6818002D
S1130820204B9847031EF9D17B6828229B5E1F4A00
S1130830934205DC7B6828229B5E1D4A934201DAC1
S1130840172324E07B6828229B5E9AB2BB699A82B4
S1130850C046BB681800134B9847031EF9D1154BCB
S11308601B680022D3409BB21B029AB2E023DB0038
S113087013409AB20F4B1B680321CB409BB2072154
S11308800B409BB213439AB2BB699A8500231800AC
S1130890BD460AB080BDC046FF7F00000080FFFF58
S11308A0FFFF000011020000FF0F0000FF0700001F
S11308B000F8FFFF2060800090B587B000AFF860BB
S11308C0B9607A601623FC18BB6818003D4B984742
S11308D003002370FB68BA681A60082103203A4BAE
S11308E09847BB681B78DBB21A000123134001D080
S11308F0052362E0C046FB681800344B9847031E8A
S1130900F9D1BB681B78DBB21A000223134001D073
S11309101C2352E07B685A78FB681A71FB681B79C8
S1130920002B02D101202A4B98471723FB180022E1
S11309301A700EE01723FB181A78FB680232920033
S11309400021D1501723FB181A781723FB18013202
S11309501A701723FB181B78022BEBD9FB680022B3
S11309609A76FB680022DA76FB6800221A83FB6819
S113097000221A771623FB181A78164B9200F9688E
S1130980D1507B682A229B5C002B0AD17B681B7B9D
S113099001225340DBB2002B03D0FB6801225A77BB
S11309A002E0FB6800225A777A68F9681623FB187C
S11309B01B781800084B984703001800BD4607B081
S11309C090BDC046390200002D0100001102000054
S11309D0D101000030010020A903000080B584B0DB
S11309E000AF78607B681B68FB60FB681B8C9BB264
S11309F0002B01D0012300E000231800BD4604B001
S1130A0080BD000080B584B000AF78607B681B684F
S1130A10FB60C0467B6818000B4B9847031EF9D156
S1130A20FB681B7EDBB202221343DAB2FB681A7640
S1130A30C0467B681800044B9847031EF9D1C04692
S1130A40BD4604B080BDC046DD09000080B584B059
S1130A5000AF78600A00FB1C1A707B681B68FB609F
S1130A60FB68FA1C12781A71C046BD4604B080BDFA
S1130A7080B584B000AF0200FB1D1A70FB1D1A780C
S1130A80474B9200D358FB60FB681B689B79DAB232
S1130A90FB681B685B79DBB21340DBB2BB60BB68ED
S1130AA00122134045D0FB681B6801229A71FB6840
S1130AB05B69991CFA685161FA681268928C92B267
S1130AC01A80FB681B8B9BB2013B9BB2FA68191C12
S1130AD01183002B0FD0FB685B7F002B29D0FB68B0
S1130AE01B68DB79DBB25BB2002B22DBFB681800EE
S1130AF02C4B98471DE0FB68012118002A4B9847AE
S1130B00FB681B7FDBB2052B13D1FB6800221A772D
S1130B10FB68DB7E1A00012313400AD0FB689B7E2E
S1130B201A000123134004D0FB689B68FA68100084
S1130B309847BB680422134014D0FB681B68042246
S1130B409A71FB68DB7E1A00022313400AD0FB680B
S1130B509B7E1A000223134004D0FB68DB68FA680A
S1130B6010009847BB680222134014D0FB681B682E
S1130B7002229A71FB68DB7E1A00042313400AD018
S1130B80FB689B7E1A000423134004D0FB681B6996
S1130B90FA6810009847C046BD4604B080BDC04600
S1130BA030010020050A00004D0A000080B500AFA6
S1130BB00020024B9847C046BD4680BD710A000024
S1130BC080B582B000AF02003960FB1D1A70FB1DB6
S1130BD01B78042B27D89A00164BD3181B689F4602
S1130BE0154B154A51693A680A435A611DE0124B84
S1130BF0114A91693A680A439A6116E00E4B0E4A0B
S1130C00D1693A680A43DA610FE00B4B0A4A116A68
S1130C103A680A431A6208E0074B074A516A3A687D
S1130C200A435A6201E0172300E000231800BD467E
S1130C3002B080BD9C6800000004004080B582B012
S1130C4000AF0200FB1D1A70064BFA1D127811004A
S1130C501F220A40012191400A001A60C046BD4685
S1130C6002B080BD00E100E080B582B000AF0200B8
S1130C70FB1D1A70074AFB1D1B7819001F230B402C
S1130C80012199400B0019008023D150C046BD4674
S1130C9002B080BD00E100E080B584B000AF7860B0
S1130CA07B681B68FB60FB681B69002B01D0012378
S1130CB000E000231800BD4604B080BD80B584B0B8
S1130CC000AF78607B681B68FB6002200D4B98477F
S1130CD0C0467B6818000C4B9847031EF9D1FB688B
S1130CE01B889BB2022213439AB2FB681A80C04647
S1130CF07B681800044B9847031EF9D1C046BD46D3
S1130D0004B080BD3D0C0000990C000080B584B097
S1130D1000AF78607B681B68FB600220104B98472B
S1130D20C0467B6818000F4B9847031EF9D1FB6837
S1130D300D4A1A81FB680C4A9A81FB681B889BB296
S1130D40022293439AB2FB681A80C0467B6818005B
S1130D50044B9847031EF9D1C046BD4604B080BD7C
S1130D60690C0000990C0000FF81FFFF80B584B07E
S1130D7000AF78607B681B68FB607B681800114BD0
S1130D8098477B6800229A867B680022DA86C046F0
S1130D907B6818000C4B9847031EF9D1FB681B882D
S1130DA09BB2012213439AB2FB681A80C0467B6847
S1130DB01800054B9847031EF9D1C046BD4604B040
S1130DC080BDC0460D0D0000990C000080B584B0B4
S1130DD000AF786039607B681B68BB603B681B7937
S1130DE09BB2DB039AB23B681B8813439AB2BB687D
S1130DF01A803B689B78002B32D0012B5ED1BB68F4
S1130E001B889AB2BB681A803B68DB78002B07D03A
S1130E10BB681B889BB2802213439AB2BB681A80BA
S1130E200F23FB1800221A7014E00F23FB181A7802
S1130E303B6802329200D1580F23FB181A787B6862
S1130E401800224B98470F23FB181A780F23FB181E
S1130E5001321A700F23FB181B78002BE5D02FE00A
S1130E60BB681B889BB2042213439AB2BB681A80E6
S1130E703B68DB78002B01D0172322E00E23FB18FC
S1130E8000221A7014E00E23FB181A783B68023211
S1130E909200D1580E23FB181A787B6818000B4B6C
S1130EA098470E23FB181A780E23FB1801321A7088
S1130EB00E23FB181B78012BE5D901E0172300E072
S1130EC000231800BD4604B080BDC046F10F0000E9
S1130ED080B584B000AFF860B9607A60FB68BA6826
S1130EE01A6080235B00190000200D4B98470D4BBE
S1130EF000221A61FB6818000B4B98477B689A78AC
S1130F00FB681A71094BFA681A607A68FB68110069
S1130F101800074B984703001800BD4604B080BD75
S1130F20C10B0000001000406D0D000034010020D2
S1130F30CD0D000080B584B000AF786039607B6867
S1130F401B68FB60C0467B681800134B9847031E60
S1130F50F9D17B681B79002B05D0012B0ED1FB68DE
S1130F603A689A610CE03B680C4A934201D9172312
S1130F700EE03B689AB2FB681A8301E0172307E08E
S1130F80C0467B681800044B9847031EF9D1002320
S1130F901800BD4604B080BD990C0000FFFF00009E
S1130FA080B584B000AF78607B681B68BB60C046C6
S1130FB07B6818000D4B9847031EF9D17B681B7999
S1130FC0002B05D0012B08D1BB689B69FB6007E0AF
S1130FD0BB681B8B9BB2FB6002E00023FB60C04636
S1130FE0FB681800BD4604B080BDC046990C0000E3
S1130FF080B586B000AFF860B960FB1D1A70FB685D
S11310001B687B61C046FB6818001D4B9847031E94
S1131010F9D1FB681B79002B0FD0012B22D1FB1DCA
S11310201B78012B01D9172326E0FB1D1A787B6955
S113103008329200B968D15016E0FB1D1B78022BD0
S113104001D9172318E0BB680E4A934201D917232C
S113105012E0FB1D1A78BB6899B27B69103252000A
S1131060D15201E01A2307E0C046FB681800044B84
S11310709847031EF9D100231800BD4606B080BD71
S1131080990C0000FFFF000080B586B000AFF86047
S1131090B960FB1D1A701723FB1800221A70FB1D80
S11310A01B780A2B03D0FB1D1B78072B04D81723AE
S11310B0FB1800221A701FE0FB681B79002B0AD072
S11310C0012B11D1FB1D1B78092B12D91723FB18F7
S11310D017221A700DE0FB1D1B780A2B0BD917235E
S11310E0FB1817221A7006E01723FB1817221A7030
S11310F002E0C04600E0C0461723FB181B78002B13
S113110015D1FB1D1A78FB6802329200B968D150E0
S1131110FB689B8E9BB21AB2FB1D1B780121994080
S11311200B001BB213431BB29AB2FB689A861723B7
S1131130FB181B781800BD4606B080BD80B584B08E
S113114000AF78600A00FB1C1A707B681B68FB60A8
S1131150FB1C1B780A2B03D1FB681A4A5A811EE038
S1131160FB1C1B78072B0BD8FB1C1B7801229A4015
S113117013009BB2FF2213409AB2FB685A810EE01F
S1131180FB1C1B78083B01229A4013009BB21B02F4
S11311909AB2C0239B0013409AB2FB685A817B68C1
S11311A0DB8E9BB21AB2FB1C1B78012199400B0009
S11311B01BB213431BB29AB27B68DA86C046BD46A3
S11311C004B080BD0080FFFF80B584B000AF7860BC
S11311D00A00FB1C1A707B681B68FB60FB1C1B78F5
S11311E00A2B03D1FB681B4A1A811EE0FB1C1B78E7
S11311F0072B0BD8FB1C1B7801229A4013009BB2CF
S1131200FF2213409AB2FB681A810EE0FB1C1B7884
S1131210083B01229A4013009BB21B029AB2C023DE
S11312209B0013409AB2FB681A817B68DB8E9BB2E9
S11312301BB2FA1C1278012191400A0012B2D24367
S113124012B213401BB29AB27B68DA86C046BD461E
S113125004B080BD0080FFFF80B586B000AF786029
S1131260584B7A689200D3583B613B691B68FB601A
S11312700A23FB183A69D28E1A803B699B8E9AB274
S11312800A23FB180A21791809880A401A800823BE
S1131290FB18FA6892891A80FB685B899AB2082362
S11312A0FB180821791809880A401A800823FB18BA
S11312B000229B5E002B0DDA0A23FB181A88802378
S11312C0DB00134002D03B691B6B9847FB683E4A26
S11312D09A8172E00823FB181B88FF22134041D037
S11312E01723FB1800221A701723FB1800221A7008
S11312F032E00823FB181B881722BA181278012140
S113130091400A001340FF22134012D00A23FB1815
S11313101A881723FB181B781A4113000122134063
S113132007D01723FB181A783B6902329200D3586E
S113133098471723FB181B7801229A4013009BB28D
S1131340FF2213409AB2FB689A811723FB181A787C
S11313501723FB1801321A701723FB181B78072B6D
S1131360C7D92AE00823FB181A8880235B0013409E
S11313700ED00A23FB181A8880235B00134002D086
S11313803B699B6A9847FB68802252009A8114E06B
S11313900823FB181A8880239B0013400DD00A23CE
S11313A0FB181A8880239B00134002D03B69DB6A38
S11313B09847FB68802292009A81C046BD4606B0D9
S11313C080BDC046340100200080FFFF80B500AF1F
S11313D00020024B9847C046BD4680BD591200000C
S11313E080B582B000AF78607B6800221A70C04676
S11313F0BD4602B080BD000080B582B000AF0200DF
S11314003960FB1D1A70FB1D1B78042B27D89A002A
S1131410164BD3181B689F46154B154A51693A68F9
S11314200A435A611DE0124B114A91693A680A4312
S11314309A6116E00E4B0E4AD1693A680A43DA61A2
S11314400FE00B4B0A4A116A3A680A431A6208E031
S1131450074B074A516A3A680A435A6201E0172364
S113146000E000231800BD4602B080BDB068000053
S11314700004004080B582B000AF78607B688022B1
S11314801A707B6800225A707B6801229A707B680C
S11314900022DA70C046BD4602B080BD80B500AF00
S11314A0054B9B78DBB21A00022313405A1E93416A
S11314B0DBB21800BD4680BD0020004180B584B079
S11314C000AF78607B681B68FB60FB68DB69072200
S11314D013405A1E9341DBB21800BD4604B080BDD0
S11314E080B582B000AF7860C0467B681800044BBA
S11314F09847031EF9D1C046BD4602B080BDC04620
S1131500BD140000F0B597B000AF786139610023D5
S1131510FB6300233B650023FB643B2310229446BA
S1131520BC44634400221A707B691B68BB637B69FB
S11315301B687B6323231022BA18D4187B6B180012
S1131540C04B9847030023700C2310229446BC44DC
S113155063441800BC4B98473B69DB697B643B6977
S11315601B6A3B647B6C002B06D17B6B002118004B
S1131570B64B984703007B647B6CDAB20C231021D2
S11315808C46BC4463441A700C2310229446BC4419
S1131590634402225A707B6C1B0CDBB20C221021B8
S11315A08C46BC44624411001800A94B98473B6C1C
S11315B0002B06D17B6B01211800A44B9847030034
S11315C03B643B6CDAB20C2310218C46BC4463446C
S11315D01A700C2310229446BC44634402225A70AD
S11315E03B6C1B0CDBB20C2210218C46BC446244C5
S11315F011001800964B98473B699A8A7B69DA80F8
S11316003B69DA8A7B691A813B691B7E002B03D113
S1131610904B9847031E02D080237B6501E0002392
S11316207B653B691B69002B04D03B691B697A6DA0
S113163013437B653B699B687A6D13437B653B6908
S113164024229B5C002B04D07B6D8022D2051343A3
S11316507B653B699B6A002B04D03B699B6A7A6D6E
S113166013437B653B692C229B5C002B05D13B69B2
S11316709A6880239B049A4204D17B6D80221205D0
S113168013437B653B692D229B5C002B04D07B6D4F
S11316908022120413437B653B692E229B5C002B42
S11316A004D07B6D8022D20313437B65BB6B1A6825
S11316B07B6D1A43BB6B1A60BB6B802252005A606D
S11316C0232310229446BC4463441B781233DBB2B8
S11316D01800614B98470300FB623B691B68FA22C0
S11316E092005343BB623B695B68FA229200534306
S11316F07B623B691B8E3B62584BF86A9847050036
S11317000E00564BB86A9847B860F960534BF86AB4
S11317109847534C534A544BA04703000C003B607A
S11317207C604E4B386A984702000B004C4C38687A
S11317307968A04703000C00180021004B4C0022DC
S11317404B4BA04703000C001A002300444CB8681C
S1131750F968A04703000C001A002300454C280038
S11317603100A04703000C001D002600BB6A5A008C
S11317703A4B1000984702000B003C4C2800310003
S1131780A04703000C00180021003A4C00223A4BF9
S1131790A04703000C001D002600BB6A5A002F4B13
S11317A01000984702000B00344C28003100A04779
S11317B003000C0019002200314B08001100984767
S11317C00300FB633B699A6880239B049A426AD1B5
S11317D0224BF86A9847254C02000B00A0470300EF
S11317E00C001D0026001D4B786A98471C4C0022F3
S11317F0244BA04703000C001A0023001F4C2800B0
S11318003100A04703000C0018002100194C0022ED
S1131810194BA04703000C0019002200184B0800C4
S1131820110098470300FB64FB6C002B2ED0164B71
S1131830796AF86A984703009A1EFB6CD31A3B65D1
S113184031E0C046413400007514000085320000C8
S1131850154000009D140000513E00005963000033
S11318604157000095D626E80B2E113EB94A0000D8
S113187000002440415C00000000F03FD95000000B
S11318806D62000000000840394500007B6A5A0080
S1131890FB6AD3185A1E7B6A59001D4B10009847E7
S11318A00300013B3B65FB6BFF2B08DCFB6B002B50
S11318B005DB3B6DFF2B02DC3B6D002B06DA3B2383
S11318C010229446BC44634440221A703B231022E5
S11318D09446BC4463441B78402B0ED0FB6BFF2220
S11318E01A403B6D1B041900FF231B040B401343D8
S11318F0FA6C12061A43BB6BDA603B23102294463F
S1131900BC4463441B781800BD4617B0F0BDC04604
S11319103945000080B58AB000AFF860B9607A60DC
S1131920FB68BA681A60FB681B68FB61FB681B688C
S113193018002F4B98470300BB61BB69052B04D1EA
S113194001237B6218233B6204E0BB697B62BB69B1
S113195012333B62BB69052B08D101227B6A9A4092
S1131960130019000320234B984707E001227B6AE8
S11319709A401300190002201E4B98471423FB18A9
S113198018001D4B98477B681A7B1423FB181A70A8
S11319903B6ADBB21422BA1811001800174B98479F
S11319A03B6ADBB21800164B98477B681B7B00210F
S11319B01800144B9847FB691B680222134001D09E
S11319C01C2310E0FB691B680122134001D005238E
S11319D009E0FB6914221A607A68FB681100180098
S11319E0094B984703001800BD460AB080BDC046A5
S11319F041340000F9130000E1130000613D0000D0
S1131A00A13D0000F93100000515000080B584B047
S1131A1000AF78607B681B68FB60FB681B7EDBB2F1
S1131A201A00022313400BD0FB6802221A76FB68CB
S1131A305B8B9BB21A000223134011D0412310E0A8
S1131A40FB685B8B9BB21A000423134008D0FB682D
S1131A505B68C02292021A43FB685A60182300E0B4
S1131A6000231800BD4604B080BD80B584B000AF2B
S1131A7078607B681B68BB600E23FB1800221A8009
S1131A800FE00E23FB180E22BA18128801321A80B6
S1131A907B681B890E22BA1812889A4201D312233A
S1131AA00EE0BB681B7EDBB21A000123134006D193
S1131AB0BB681B7EDBB21A0002231340E1D0002373
S1131AC01800BD4604B080BD90B585B000AF786005
S1131AD00A00FB1C1A707B681B68FB60FB685B6870
S1131AE08022D2021A43FB685A60FB1C1A78FB68F6
S1131AF05A620B23FC187B681800074B98470300B5
S1131B002370FB6801221A760B23FB181B7818003C
S1131B10BD4605B090BDC0466B1A000090B587B0B5
S1131B2000AF786039607B681B68FB601423FB1886
S1131B303A6852881A801223FB1800221A80FB6824
S1131B401B681B01DB0FDBB21A000B23FB18511EB1
S1131B508A411A703B685B7A002B06D03B689A7AFC
S1131B607B6811001800854B9847FB685B68844AC2
S1131B701A40FB685A603B681B7A002B42D03B68D2
S1131B801B885A003B685B7A9B0313431A0080232B
S1131B901B021A43FB685A621723FC187B6818005F
S1131BA0784B984703002370FB685B68744A1A40BB
S1131BB0FB685A601723FB181B78002B07D11723E7
S1131BC0FC187B681800704B984703002370172398
S1131BD0FB181B78002B11D13B681B881B0A9BB296
S1131BE0782213439BB25A003B685B7A9B031343EE
S1131BF0012213431A00FB685A620FE01723FB18F3
S1131C001B78B6E03B681B885B0001221A433B68E3
S1131C105B7A9B0313431A00FB685A621723FC1870
S1131C207B681800574B9847030023700B23FB185D
S1131C301B78002B0BD03B685B88012B07D1FB681A
S1131C405B688022D2021A43FB685A6005E0FB6895
S1131C505B684B4A1A40FB685A601723FB181B78D1
S1131C60002B07D11723FC187B681800464B9847B4
S1131C70030023701723FB181B78002B00D075E09A
S1131C804BE0FB685B8B9BB21A002023134001D10D
S1131C9041236EE07B68DB7A002B1ED00B23FB18FC
S1131CA01B7801225340DBB2002B04D01423FB1811
S1131CB01B88002B09D00B23FB181B78002B0CD09E
S1131CC01423FB181B88012B07D1FB685B68802257
S1131CD0D2021A43FB685A601AE07B6818002B4B47
S1131CE098473B685A681223FB181B8812217918FD
S1131CF0581C0880D318FA682821525CD2B21A7092
S1131D001723FC187B6818001E4B984703002370A8
S1131D101723FB181B78002B09D11423FB181B88ED
S1131D201422BA18591E1180002BAAD100E0C04613
S1131D307B689B7A002B0AD07B681800134B98476A
S1131D40FB685B68C02292021A43FB685A607B6896
S1131D5018000E4B98473B685A681223FB181B88DF
S1131D60D318FA682821525CD2B21A701723FB18D0
S1131D701B781800BD4607B090BDC046C91A0000C4
S1131D80FFFFFBFF6B1A00000D1A0000E1140000B6
S1131D9080B582B000AF786039607B6801229A72A6
S1131DA07B680122DA723A687B6811001800034BE1
S1131DB0984703001800BD4602B080BD1D1B0000FB
S1131DC090B587B000AF786039607B681B68FB60B2
S1131DD01423FB183A6852881A807B681800514B08
S1131DE098473B685B7A002B06D03B689A7A7B68FD
S1131DF0110018004C4B9847FB685B684B4A1A402B
S1131E00FB685A603B681B7A002B0DD03B681B882B
S1131E105A003B685B7A9B0313431A0080231B021E
S1131E201A43FB685A6209E03B681B885A003B6806
S1131E305B7A9B0313431A00FB685A621723FC184E
S1131E407B6818003A4B9847030023701723FB184C
S1131E501B78002B07D11723FC187B681800354B1F
S1131E609847030023701723FB181B78002B52D1CB
S1131E701223FB1800221A8033E0FB685B8B9BB2B1
S1131E801A002023134001D1412347E07B68180046
S1131E90244B98473B685A681223FB181B8812216D
S1131EA07918581C0880D3181978FB68282299548B
S1131EB01723FC187B6818001D4B984703002370F8
S1131EC01723FB181B78002B15D1FB685B8B9BB287
S1131ED01A000423134004D01723FB181E221A707F
S1131EE00AE01423FB181B881422BA18591E118007
S1131EF0002BC2D100E0C0467B689B7A002B0AD03D
S1131F007B681800074B9847FB685B68C022920205
S1131F101A43FB685A601723FB181B781800BD4648
S1131F2007B090BDE1140000C91A0000FFFFFBFFD9
S1131F306B1A00000D1A000080B582B000AF786003
S1131F4039607B6801229A727B680122DA723A68EE
S1131F507B6811001800034B984703001800BD4626
S1131F6002B080BDC11D000080B582B000AF020088
S1131F70FB1D1A70064BFA1D127811001F220A402D
S1131F80012191400A001A60C046BD4602B080BDDE
S1131F9000E100E080B584B000AF78607B681B6826
S1131FA0FB60FB681B8C9BB2002B01D0012300E07B
S1131FB000231800BD4604B080BD80B586B000AFD4
S1131FC078607B681B683B613B699B79DBB2FB6093
S1131FD000237B61FB680122134003D07B6901224B
S1131FE013437B61FB680422134003D07B69022204
S1131FF013437B61FB680222134003D07B690422F4
S113200013437B617B691800BD4606B080BD80B573
S113201084B000AF786039607B681B68BB600023C4
S1132020FB603B680122134003D0FB680122134389
S1132030FB603B680222134003D0FB680422134375
S1132040FB603B680422134003D0FB680222134365
S1132050FB60FB68DAB2BB689A71C046BD4604B047
S113206080BD000080B584B000AF78607B681B68D9
S1132070FB60C0467B681800104B9847031EF9D1DB
S113208016200F4B9847FB6807221A71FB6807223A
S11320909A71FB681B78DBB202221343DAB2FB6845
S11320A01A70C0467B681800044B9847031EF9D188
S11320B000231800BD4604B080BDC046951F000033
S11320C0691F000080B584B000AF78607B681B682E
S11320D0FB60C0467B6818000B4B9847031EF9D180
S11320E0FB681B7EDBB202221343DAB2FB681A766A
S11320F0C0467B681800044B9847031EF9D1C046BC
S1132100BD4604B080BDC046951F000080B584B0B4
S113211000AF786039607B681800144B9847020060
S11321200123134001D105231CE07B681B68FB607D
S1132130FB689B8C9AB23B681A807B68012118006B
S11321400B4B98477B681800084B98470200042300
S1132150134006D07B6804211800054B98471E23C2
S113216000E000231800BD4604B080BDBB1F000082
S11321700F20000080B500AF0F4B18000F4B98479D
S11321800D4B07229A700C4B00221A710A4B032242
S11321905A70094B00221A75074B094A1A61064AFC
S11321A00849094B1800094B9847074B1800084B7E
S11321B09847C046BD4680BD4C0000208102000007
S11321C03D040000000C00432C000020B90800006E
S11321D065200000F0B585B000AF78607B68292BDE
S11321E01DD87B689A00334BD3181B689F46324B2B
S11321F000221A7115E0304B02221A7111E02E4BA5
S113220003221A710DE02C4B04221A7109E02A4BA7
S113221005221A7105E0284B0A221A7101E00023F5
S113222043E0254A2549264B1800264B9847244B62
S11322301800254B98470C23FB1800221A800E2304
S1132240FB1800221A800020204B984703001D0031
S113225000231E001E4C6422002328003100A047E6
S113226003000C00190022001A4B0024C918624113
S113227008001100184C194A0023A04703000C0061
S11322801800174B98470C23FA180D4B110018002F
S1132290144B98470300052B04D10E23FB181B880D
S11322A0132BD0D90C23FB181B881800BD4605B08E
S11322B0F0BDC046C46800004C000020000C004380
S11322C02C000020B9080000C5200000A13C00003B
S11322D0AD480000BFCF6A006D480000C0CF6A005F
S11322E0010000200D21000080B582B000AF020083
S11322F0FB1D1A708023DB05FA1D12785A70C04644
S11323008023DB055B78DBB2FA1D12789A42F7D1A1
S1132310C046BD4602B080BD80B500AFBFF34F8F4D
S113232030BFC046BD4680BD80B584B000AF786084
S11323307B68B02212011A807B6801229A707B6844
S11323400022DA707B6801221A710F23FB18002225
S11323501A700EE00F23FB181A787B680232920081
S11323600021D1500F23FB181A780F23FB180132D8
S11323701A700F23FB181B78012BEBD9C046BD46FE
S113238004B080BD80B500AF034B08211800034B97
S11323909847C046BD4680BD78000020C9110000A2
S11323A080B584B000AF3B0018000F4B98473B004A
S11323B000221A803A000D490D4B18000D4B984726
S11323C00B4B002118000C4B9847094B18000B4B82
S11323D098470B49064B082218000A4B9847C046F9
S11323E0BD4604B080BDC046292300000020004043
S11323F078000020D10E0000350F0000BD0C000055
S1132400852300008910000080B584B000AF786097
S11324100E4B18000E4B98470300FB60FA687B686C
S1132420D318BB60B968094B00221800094B9847C0
S1132430064B08211800084B98470220074B984781
S1132440074B9847C046BD4604B080BD78000020C5
S1132450A10F0000F10F00003D110000E92200006F
S11324601923000080B584B000AF78600E4B1800CB
S11324700E4B98470300FB60FA687B68D318BB6077
S1132480B968094B00221800094B9847064B0821EC
S11324901800084B98470420074B9847074B984768
S11324A0C046BD4604B080BD78000020A10F0000E6
S11324B0F10F00003D110000E92200001923000083
S11324C090B585B000AF78607B681B785B075B0FC5
S11324D0DBB25B015AB27B681B789B065B0FDBB2F5
S11324E09B005BB21C210B405BB213435AB27B6866
S11324F01B785B06DB0FDBB25BB201210B405BB2E6
S113250013435BB2DAB20F23FB181A700F23F818C7
S1132510F52376220121174CA0477B685B785B0783
S11325205B0FDBB25B015AB27B685B789B065B0F87
S1132530DBB29B005BB21C210B405BB213435AB26B
S11325407B685B781B069B0FDBB25BB203210B40FD
S11325505BB213435BB2DAB20F23FB181A700F237A
S1132560F818F42376220121024CA047C046BD4648
S113257005B090BD152E000080B584B000AF786022
S11325800E23FB1800221A807B681B781AB27B6822
S113259001331B781B021BB213431AB20E23FB1820
S11325A000215B5E13431AB20E23FB181A800E231C
S11325B0FB181B881800BD4604B080BD80B584B0EC
S11325C000AF78600E23FB1800221A807B681B780A
S11325D01AB27B6801331B781B021BB2134319B276
S11325E00E23FB180E22BA1812880A431A800E23EF
S11325F0FB1800229B5E1800BD4604B080BD00009D
S113260090B589B000AF1F23FB1800221A701F2356
S1132610F818D02376220121494CA0471F23FB1828
S11326201B78582B00D086E0464B1B88002B77D1B3
S11326303B1D180018231A000021434B9847381DEE
S11326408823762218213E4CA0473B1D18003F4B9F
S1132650984703001A003B4B1A803B1D02331800B5
S11326603B4B984703001A00364B5A803B1D0433FA
S11326701800374B984703001A00324B9A803B1DD1
S113268006331800314B984703001A002D4BDA80AB
S11326903B1D083318002E4B984703001A00294BA2
S11326A01A813B1D0A331800294B984703001A006E
S11326B0244B5A813B1D0C331800254B98470300CB
S11326C01A00204B9A813B1D0E331800204B98476B
S11326D003001A001B4BDA813B1D103318001C4BFE
S11326E0984703001A00174B1A823B1D1233180037
S11326F0174B984703001A00124B5A823B1D1433A0
S11327001800134B984703001A000E4B9A823B1D86
S1132710163318000E4B984703001A00094BDA824F
S11327201C23FB180B4A12881A801C23FB18180060
S1132730094B984700E0C046BD4609B090BDC0466D
S1132740452F0000B00000204367000079250000F9
S1132750BD2500006C690000C124000080B586B06E
S113276000AF78607B68DA10164B1B885B00D31AC5
S1132770144A0221525E5343DB127B617B681B11B6
S1132780104A12889B1A7A6812110E490988521A43
S113279053431B130B4A0421525E53439B133B6167
S11327A07A693B69D218084B1A60074B1A68130000
S11327B09B009B1880331B12FB60FB681800BD460E
S11327C006B080BDB0000020C8000020F0B5ABB05A
S11327D000AF8C23FB181860D04B1B681900DB1763
S11327E01A00CF4B012464425B185441A022BA184A
S11327F013605460CB4CA023FB181A685B68A021BB
S1132800791808684968A04703000C0018002100E3
S1132810C54B10229B5E3B65DB177B65C14C3A6D53
S11328207B6DA04703000C009822BA181360546013
S1132830BD4B0E229B5EBB64DB17FB64B94CA0232B
S1132840FB181A685B68B86CF96CA04703000C00AD
S1132850DA0B660416435D049823FB185C681B6856
S11328605B1974419822BA1813605460AE4B0C2261
S11328709B5E3B64DB177B643B6CDB00FB630023E8
S1132880BB639823FB185C681B68B96BFA6B5B1815
S113289054419822BA1813605460A24CA023FB1828
S11328A01A685B68A021791808684968A047030082
S11328B00C00180021009C4B0A229B5E3B63DB1733
S11328C07B63984C3A6B7B6BA04703000C00220699
S11328D0190A802038180160802179180968114389
S11328E08022BA18116023128422BA1813608E4B06
S11328F008229B5EBB62DB17FB628A4CA023FB1899
S11329001A685B68B86AF96AA04703000C001A0DDC
S11329102103F967F96F1143F9671B03BB67802330
S1132920FB185C681B68B96FFA6F5B185441A022EE
S1132930BA1813605460A023FB1819685A6800235E
S113294080242402C918624108001100764BDB88F8
S11329503B6200237B62734C3A6A7B6AA0470300A4
S11329600C006210A02179180A60E317A422BA1897
S11329701360A023FB181A68A423FB181B681A43CE
S113298001D10023C6E08C23FB181A6880235B0363
S11329909B1A9022BA181360DB179422BA1813609A
S11329A09023FB181B685B10FB619023FB181B68CA
S11329B0DB07BB619823FB185C681B68B869F9697D
S11329C0C01AA141574C594A0023A04703000C00E8
S11329D018002100564CA023FB181A685B68A04716
S11329E003000C009022BA18136054604E4B162258
S11329F09B5E3B61DB177B619423FB181B68DA0445
S1132A009023FB181B685B0B3B673B6F13433B67CF
S1132A109423FB181B685B137B67424C3A6F7B6FF4
S1132A2038697969A04703000C0018002100942339
S1132A30FB181B68DA049023FB181B685B0BBB664E
S1132A40BB6E1343BB669423FB181B685B13FB66C6
S1132A50344CBA6EFB6EA04703000C00E201590E21
S1132A600A43A02179180A606316A422BA181360D5
S1132A702D4B14229B5EBB60DB17FB60294C90231B
S1132A80FB181A685B68B868F968A04703000C0073
S1132A906203D90C0A43982179180A60E3149C2232
S1132AA0BA1813609023FB1819685A68A023FB18FE
S1132AB05C681B68C91862419823FB185C681B6832
S1132AC05B1854412206190A3966396E1143396676
S1132AD023127B66144B12229B5E3B60DB177B60E8
S1132AE039687A680B001B0F10000001F865F86D57
S1132AF01843F8650B001B01BB653B6E7C6EB96D1A
S1132B00FA6D5B1854419022BA18136054609023F4
S1132B10FB181B681800BD462BB0F0BDC800002090
S1132B20000CFEFFAD480000B0000020350C000092
S1132B302548000090B585B000AF78600823FB18E5
S1132B401800184B98470823FB181A68164B1000F6
S1132B509847164C0022164BA04703000C0019009E
S1132B602200144B080011009847021C7B681A606D
S1132B700823FB185A68104B100098470F4C104A52
S1132B80104BA04703000C0019002200094B080059
S1132B9011009847021C7B685A60C046BD4605B0C8
S1132BA090BDC046C92B000059630000D9500000F5
S1132BB000007040C9630000D56200004157000066
S1132BC07B14AE47E17A843F90B587B000AF78605C
S1132BD01023FB18180006231A000021244B9847E1
S1132BE01023F818F72376220621224CA04710233D
S1132BF0FB189A780823FB181A701023FB185A78CC
S1132C000823FB185A701023FB181A780823FB18A2
S1132C109A70BB681B091B031B0BBB601023FB18BA
S1132C205A790C23FB181A701023FB181A790C23F9
S1132C30FB185A701023FB18DA780C23FB189A70CF
S1132C40FB681B091B031B0BFB60FB6818000A4B8A
S1132C50984702007B685A60BB681800074B984786
S1132C6002007B681A60C046BD4607B090BDC046EE
S1132C7043670000452F00005D270000CD270000BA
S1132C8080B584B000AF78607B681B68FB60FB682C
S1132C90DB69072213405A1E9341DBB21800BD467C
S1132CA004B080BD80B582B000AF7860C0467B6858
S1132CB01800044B9847031EF9D1C046BD4602B024
S1132CC080BDC046812C000080B582B000AF786022
S1132CD07B6864221A607B681B4A5A607B68002206
S1132CE09A607B6800221A737B6800221A767B68DC
S1132CF0802292031A617B6801225242DA827B6845
S1132D00012252429A827B680022DA617B680022A7
S1132D101A627B682422002199547B6800229A62FB
S1132D207B682C22002199547B682D220021995420
S1132D307B682E22002199547B68D7221A86C046CC
S1132D40BD4602B080BDC046480D000080B584B0C9
S1132D5000AF78607B681B68BB600023FB607B6806
S1132D601800104B9847BB681B6802221A43BB68C3
S1132D701A600CE0FB680133FB607B68DB881A0097
S1132D80FB689A4203D8BB6810225A8306E0BB68EA
S1132D905B8B9BB21A0010231340EBD0BD4604B0EA
S1132DA080BDC046A52C000080B500AF104B1800B4
S1132DB0104B98470E4BC02292031A610C4B6422AD
S1132DC01A600B4B0C4ADA82094B0C4ADA61084B45
S1132DD00B4A1A62064A0B490B4B18000B4B9847D7
S1132DE0094B18000A4B9847C046BD4680BDC046F3
S1132DF0CC000020C92C000010270000020016009F
S1132E0002001700000C0042000100201519000008
S1132E104D2D0000F0B591B000AF78620E001000A7
S1132E2019002323FB18321C1A702223FB18021CDE
S1132E301A702123FB180A1C1A706B467B6023232B
S1132E40FB181B7802335A1EFA631A003A610022F7
S1132E507A61386979690200520F0E00F600FE614A
S1132E60FE691643FE610200D200BA611A00BA601C
S1132E700022FA60B868F9680200520F0E00F500EB
S1132E8015430200D4000733DB08DB006A46D31A7B
S1132E909D466B460033BB63BB6B2122BA18127884
S1132EA01A70BB6B581C2323FB181A787B6A190011
S1132EB0214B98472223FB181B789AB20C2320211C
S1132EC08C46BC4463441A80BA6B0C2320218C4684
S1132ED0BC4463445A602323FB181B789BB2013320
S1132EE09AB20C2320218C46BC4463445A800C23A0
S1132EF020229446BC44634400225A720C232022AC
S1132F009446BC44634400229A720C2320229446C3
S1132F10BC44634400221A720C232022BA18D2182B
S1132F20064B11001800064B98477B689D46C04627
S1132F30BD4611B0F0BDC04631670000000100205D
S1132F40391F000090B589B000AF78600C00100004
S1132F501900FB1C221C1A70BB1C021C1A707B1C5F
S1132F600A1C1A70BB1C1B789AB21423FB181A8013
S1132F701423FB187A1C5A601423FB1801225A806C
S1132F801423FB1800225A721423FB1800229A728D
S1132F901423FB1800221A721423FA18154B11007B
S1132FA01800154B9847BB1C1B789AB20823FB18D2
S1132FB01A800823FB187A685A60FB1C1B789AB2A3
S1132FC00823FB185A800823FB1800225A7208238E
S1132FD0FB1800229A720823FB1800221A72082395
S1132FE0FA18044B11001800044B9847C046BD461C
S1132FF009B090BD00010020391F0000911D0000A0
S113300090B583B000AFFB1D00221A70F81D0F238A
S1133010192201210E4CA047FB1D1B78332B12D122
S1133020BB1D4F221A70B81D202319220121094CFF
S1133030A047BB1D10221A70B81D23231922012199
S1133040044CA04700E0C046BD4603B090BDC04656
S1133050452F0000152E000090B585B000AF7860B4
S11330600823F818A823192206211E4CA047082378
S1133070FB181B781AB27B681A807B6800229A5E60
S11330800823FB185B781B021BB213431AB27B683C
S11330901A800823FB189B781AB27B685A807B68D5
S11330A002229A5E0823FB18DB781B021BB213432F
S11330B01AB27B685A800823FB181B791AB27B6802
S11330C09A807B6804229A5E0823FB185B791B02B2
S11330D01BB213431AB27B689A80C046BD4605B042
S11330E090BDC046452F000090B585B000AF786014
S11330F00823FB181800244B98470823FB180022C8
S11331009A5E224B10009847214C224A224BA0473A
S113311003000C0019002200204B080011009847FE
S1133120021C7B681A600823FB1802229A5E174B64
S113313010009847164C174A174BA04703000C0081
S113314019002200154B080011009847021C7B68E7
S11331505A600823FB1804229A5E0C4B100098470F
S11331600B4C0C4A0C4BA04703000C001900220026
S11331700A4B080011009847021C7B689A60C046FD
S1133180BD4605B090BDC04659300000D562000070
S11331904157000074479CA1FAFF1F3FC963000018
S11331A080B582B000AF044B7B607B6801229A71CA
S11331B0C046BD4602B080BD001C004080B500AFD3
S11331C0054B9847054B1B68002B02D0034B1B682B
S11331D09847C046BD4680BDA1310000380100209B
S11331E080B582B000AF78607B6800221A70C04658
S11331F0BD4602B080BD000080B584B000AF0200BF
S1133200FB1D1A70BB1D0A1C1A701A4B1B78012275
S11332105340DBB2002B03D1BB1D1B78002B1BD00A
S11332200C23FB181800144B98470C23FB18FA1DA9
S113323012781A700C23FB18190011200F4B9847B1
S113324011200F4B98470B4BFA1D12785A70094BFB
S113325001221A70002308E0064B5B78FA1D1278ED
S11332609A4201D1002300E01D231800BD4604B09A
S113327080BDC0460C010020E1310000613D00002A
S1133280A13D000080B582B000AF78600A00FB1C4D
S11332901A707B684E4A934240D04D4A934207D8F5
S11332A08422D20593420FD04A4A934221D089E026
S11332B0494A934200D15BE0484A934200D16CE012
S11332C0474A93423FD07DE0FB1C1B78012B0AD078
S11332D002DC002B05D075E0022B06D0032B06D0B0
S11332E070E0404B6FE0404B6DE0404B6BE0404B77
S11332F069E0FB1C1B78012B0AD002DC002B05D0F3
S113330060E0022B06D0032B06D05BE003235AE0D7
S1133310384B58E0384B56E0384B54E0FB1C1B78D4
S1133320012B0AD002DC002B05D04BE0022B06D087
S1133330032B06D046E0324B45E0324B43E0324BA0
S113334041E0324B3FE0FB1C1B78012B0AD002DC2E
S1133350002B05D036E0022B06D0032B06D031E03B
S11333602B4B30E02B4B2EE02B4B2CE02B4B2AE04D
S1133370FB1C1B78012B0AD002DC002B05D021E0BA
S1133380022B06D0032B06D01CE0254B1BE0254B5B
S113339019E0254B17E0254B15E0FB1C1B78012B8E
S11333A00AD002DC002B05D00CE0022B06D0032B44
S11333B006D007E01E4B06E01E4B04E01E4B02E065
S11333C01E4B00E000231800BD4602B080BDC0467D
S11333D000080042000400420010004200040043C0
S11333E0000C004203000400030005000300060073
S11333F0030007000300010003001E0003001F0078
S1133400030008000300090003000A0003000B0086
S11334100300100003001100030012000300130056
S113342003000C0003000D0003000E0003000F0056
S1133430030016000300170003001800030019001E
S113344090B58BB000AF78600C23FB180F4A13CAF9
S113345013C313CA13C300237B620EE00C23FB18AF
S11334607A6A9200D3581A007B689A4202D17B6A26
S1133470DBB206E07B6A01337B627B6A052BEDD904
S113348000231800BD460BB090BDC046746900000F
S113349080B500AFC046BD4680BD80B582B000AFE8
S11334A078607B685B091800BD4602B080BD0000EF
S11334B080B582B000AF78607B68DB01034A944634
S11334C063441800BD4602B080BDC04600280040D9
S11334D080B582B000AF78607B681F221340012260
S11334E09A4013001800BD4602B080BD80B58AB072
S11334F000AFF860B9607A60FB6818002B4B9847FE
S113350003003B6200237B620023FB617B6A802211
S1133510920213437B627B682022134003D17B68B1
S11335201022134004D07B6A8022D20213437B62B0
S11335307B688022134004D07B6A8022D203134329
S11335407B627B681A06F0231B051340FB61BB6892
S11335501B041B0CBB61BB681B0C7B61BA697B6AD7
S11335601A43FB691343A022D2051A433B6A9A62A9
S11335707A697B6A1A43FB691343D02212061A4301
S11335803B6A9A627B682022134003D03B6ABA6884
S11335905A6106E07B681022134002D03B6ABA6885
S11335A09A61C046BD460AB080BDC046B134000031
S11335B090B583B000AF786039607B681800084B21
S11335C0984704007B681800064B984701003B6845
S11335D01A002000044B9847C046BD4603B090BD76
S11335E09B340000D1340000ED34000080B582B07B
S11335F000AF786039603A687B6811001800034BAB
S11336009847C046BD4602B080BDC046B1350000F3
S113361080B500AF02211620104B984702211720D5
S11336200E4B9847012102200C4B9847012128207A
S11336300A4B984701212920084B9847012104206F
S1133640064B984701210520044B9847012122206D
S1133650024B9847C046BD4680BDC046ED350000CC
S113366080B582B000AF104B1B68002B12D1EFF372
S113367010837B607B68002B09D172B6BFF35F8F28
S11336800A4B00221A700A4B01221A7002E0084BFE
S113369000221A70044B1B685A1C034B1A60C04664
S11336A0BD4602B080BDC046100100200C000020C1
S11336B01401002080B500AF0B4B1B685A1E0A4B47
S11336C01A60094B1B68002B0AD1084B1B78DBB22C
S11336D0002B05D0064B01221A70BFF35F8F62B630
S11336E0C046BD4680BDC046100100201401002024
S11336F00C00002080B582B000AF78607B680122A6
S11337005A607B6800225A707B6806221A707B68B4
S113371000221A727B6800225A72C046BD4602B06B
S113372080BD80B582B000AF0200FB1D1A70C04698
S1133730BD4602B080BD000080B582B000AF02007B
S1133740FB1D1A70054AFB1D1B78012199400B00D3
S1133750DBB21371C046BD4602B080BD0004004018
S113376080B582B000AF0200FB1D1A70054AFB1D34
S11337701B78012199400B00DBB25371C046BD4652
S113378002B080BD0004004080B582B000AF0200EA
S1133790FB1D1A70054AFB1D1B78012199400B0083
S11337A0DBB29371C046BD4602B080BD0004004048
S11337B080B500AF0020074B98470200064B1B79E9
S11337C0DBB21900054B1000984703001800BD46F2
S11337D080BDC046A13C0000000400403945000003
S11337E080B582B000AF0200FB1D1A70084AFB1DB1
S11337F01B780F210B40D9B253680F2001404900B8
S11338001E2083430B435360C046BD4602B080BDB7
S11338100040004180B582B000AF0200FB1D1A7069
S11338208023DB059B78DBB2FA1D12789A4201D122
S1133830002319E08023DB059B78DBB25BB2002B0D
S113384001DA172310E08023DB0501229A7180231B
S1133850DB05FA1D12789A70C0468023DB059B793C
S1133860DBB2002BF9D000231800BD4602B080BDA6
S113387080B500AFC046044BDA6880235B00134078
S1133880F9D0C046BD4680BD000C004080B582B072
S113389000AF0200FB1D1A70FB1D1B78082B42D8D9
S11338A09A00234BD3181B689F46224B1B693BE0AD
S11338B0214B1B7D1B079B0FDBB201331A001F4BEF
S11338C0534331E080231B022EE080231B022BE0B4
S11338D0184B5B6928E0174B1B680222134001D187
S11338E0002321E0164B9847124B1B6824221340F7
S11338F0042B09D10020134B984702000D4B9B6801
S11339001B041B0C53430FE00F4B0DE00A4A282302
S1133910D35CDBB21A000223134001D1002303E07D
S1133920044BDB6800E000231800BD4602B080BDF4
S11339308C69000018010020000C004000093D00C3
S113394071380000513E0000006CDC0280B5A0B06C
S113395000AF264B802252009A60254B03229A60C6
S11339600020244B98470220234B98471F4A137D7D
S1133970802149420B4313751C4A137D40218B431C
S113398013751E4B984700201D4B984700201D4B74
S1133990984700201C4B984700201C4B98473B1D20
S11339A018001B4B98473B1D06221A703B1D012231
S11339B05A603B1D00221A723B1D00225A723B1DA5
S11339C019000020134B98470020134B9847134BC2
S11339D098470300FB67FB6F114A934202D800200B
S11339E0054B9847C046BD4620B080BD000C004042
S11339F000140040E137000015380000053B0000CA
S1133A008937000061370000393700002337000090
S1133A10F5360000353B0000453C0000B13700009E
S1133A20001BB70080B582B000AF02003960FB1DF7
S1133A301A70FB1D1B78042B27D89A00164BD31839
S1133A401B689F46154B154A51693A680A435A61E7
S1133A501DE0124B114A91693A680A439A6116E0D3
S1133A600E4B0E4AD1693A680A43DA610FE00B4BF8
S1133A700A4A116A3A680A431A6208E0074B074A7D
S1133A80516A3A680A435A6201E0172300E00023AE
S1133A901800BD4602B080BDB069000000040040BB
S1133AA080B500AF024B9847C046BD4680BDC046B6
S1133AB06136000080B500AF024B9847C046BD4652
S1133AC080BDC046B536000080B582B000AF0200AC
S1133AD0FB1D1A70094B5B68FA1D12780121914095
S1133AE00A0092001340064A134001D0012300E06B
S1133AF000231800BD4602B080BDC0460018004037
S1133B00FC07000080B500AF40210020074B984718
S1133B10074B01221A70C046054B1B78DBB21A0012
S1133B2001231340F8D1C046BD4680BD253A0000AC
S1133B300018004080B586B000AF02003960FB1D5C
S1133B401A703B681B787B613B685B78002B04D060
S1133B507B698022D20013437B613B685B7A002B34
S1133B6004D07B698022120113437B613B685B684C
S1133B70012B2CD93B685A683B685B68013B1340B6
S1133B801AD100233B610223FB6005E03B6901334A
S1133B903B61FB685B00FB603B685A68FB689A42C8
S1133BA0F4D83B691B047A6913437B617B698022E7
S1133BB0520113437B610AE03B685B681B047A692A
S1133BC013437B617B698022920013437B613B68D2
S1133BD01B7A002B04D07B698022920113437B6102
S1133BE0C046FB1D1B781800124B9847031EF8D1E2
S1133BF0114B98471148FB1D1B781049FA1D127888
S1133C000832920051588022520011407A690A43C6
S1133C1008339B001A50C046FB1D1B781800054B47
S1133C209847031EF8D1064B9847C046BD4606B0D8
S1133C3080BDC046C93A0000A13A00000018004007
S1133C40B53A000080B582B000AF0200FB1D1A70C7
S1133C50C046FB1D1B7818000D4B9847031EF8D176
S1133C600C4B98470C48FB1D1B780B49FA1D127826
S1133C70083292005258802149000A4308339B00BD
S1133C801A50064B9847C046BD4602B080BDC04698
S1133C90C93A0000A13A000000180040B53A0000FB
S1133CA080B586B000AF0200FB1D1A70C046FB1D34
S1133CB01B781800244B9847031EF8D1234B9847D0
S1133CC0234AFB1D1B7808339B009B581B071B0FC3
S1133CD0DBB218001F4B984703007B611C4AFB1D95
S1133CE01B7808339B009B58DB04DB0FDAB21323E9
S1133CF0FB181A70164AFB1D1B7808339B009B584F
S1133D001B0C9BB2FB60144B98471323FB181B78C6
S1133D10002B09D1FB68012B06D9104BF96878698F
S1133D20984703007B610AE01323FB181B78002BE0
S1133D3005D0FB6801337A69DA4013007B617B6943
S1133D401800BD4606B080BDC93A0000A13A000083
S1133D50001800408D380000B53A000039450000D5
S1133D6080B582B000AF02003960FB1D1A70FB1DE4
S1133D701B781800084B98470849FB1D1B783A68C4
S1133D80127810000F22024020339B005A50C04684
S1133D90BD4602B080BDC046F93D00000018004099
S1133DA080B582B000AF0200FB1D1A700F4B98471C
S1133DB00F49FB1D1B780E48FA1D12782032920021
S1133DC012584020024320339B005A50C046084AF0
S1133DD0FB1D1B7820339B009B5840221340F6D0D8
S1133DE0044B9847C046BD4602B080BDA13A0000CE
S1133DF000180040B53A000080B582B000AF020060
S1133E00FB1D1A700F4B98470F49FB1D1B780E487A
S1133E10FA1D127820329200125840208243203337
S1133E209B005A50C046084AFB1D1B7820339B0058
S1133E309B5840221340F6D1044B9847C046BD46D8
S1133E4002B080BDA13A000000180040B53A00005D
S1133E5080B584B000AF0200FB1D1A700D4B98476B
S1133E600D4AFB1D1B7820339B009B581B071B0F1F
S1133E70DAB20F23FB181A70084B98470F23FB186C
S1133E801B781800064B984703001800BD4604B081
S1133E9080BDC046A13A000000180040B53A0000B9
S1133EA0A13C000080B584B000AF0200FB1D1A7075
S1133EB00F23FB18FA1D1278D2091A700E23FB186F
S1133EC0FA1D127852091A700D4BBB600F23FB18B0
S1133ED01B78002B0FD10F23FB181B789B0010229B
S1133EE09446BC446344083B1A680E23FB181B78B1
S1133EF0DB01D31800E000231800BD4604B080BDE8
S1133F000028004080B588B000AFF860B9607A60DE
S1133F100023FB617B68DB7801225340DBB2002B7A
S1133F2035D07B681B78802B0BD0FB698022520232
S1133F301343FB617B681B781B061A00FB69134360
S1133F40FB617B685B78002B03D07B685B78022B7A
S1133F5010D1FB69802292021343FB617B689B783A
S1133F60002B04D0FB698022D2021343FB61FB685F
S1133F70BA685A607B685B78012B03D07B685B78F6
S1133F80022B07D1FB69224A1340FB6102E0FB6864
S1133F90BA685A60BB681B041B0CBB61BB681B0C72
S1133FA07B61BA69FB691343A022D2051A43FB68FB
S1133FB09A627A69FB691343D02212061A43FB689A
S1133FC09A627B68DB7801225340DBB2002B1AD063
S1133FD0FA698023DB0213400AD07B689B78012BAB
S1133FE003D1FB68BA689A6102E0FB68BA685A6157
S1133FF07B685B78012B03D07B685B78022B02D152
S1134000FB68BA689A60C046BD4608B080BDC04629
S1134010FFFFFBFF80B584B000AF02003960FB1DD9
S11340201A70FB1D1B7818000A4B98470300FB60AD
S1134030FB1D1B781F22134001229A401300BB6012
S11340403A68B968FB681800034B9847C046BD46F8
S113405004B080BDA53E0000053F000080B500AF60
S1134060C046BD4680BD000080B500AF064B9847F2
S1134070064B9847064B9847064B9847064B98477C
S1134080C046BD4680BDC0464D3900001136000013
S11340905D4000005D4000005D40000080B582B0DE
S11340A000AF194B7B60194B3B607A683B689A42BE
S11340B00CD007E03B681A1D3A607A68111D7960DC
S11340C012681A603A68124B9A42F3D3114B3B6060
S11340D004E03B681A1D3A6000221A603A680E4BED
S11340E09A42F6D30D4B7B600D4B7A68FF218A43CD
S11340F09A600C4A536880210B4353600A4B9847DB
S11341000A4B9847FEE7C0466C6A00000000002096
S113411010000020100000203C01002000000000DE
S113412000ED00E000400041E96600001943000092
S113413080B500AFFEE780B582B000AF78607B68E1
S113414000221A707B6800225A707B6800229A70E1
S11341507B680022DA707B6800221A717B68002277
S11341605A71C046BD4602B080BD000080B582B021
S113417000AF78602B4A7B681978936909061B02A3
S11341801B0A0B439361274A7B685B78191C0F2336
S11341900B40D9B293690F2001400904224803401F
S11341A00B4393611F4A7B6899789369012001400E
S11341B08901402083430B4393611A4A7B68DB786F
S11341C0191C03230B40D9B29369032001408900D1
S11341D00C2083430B439361124A7B681B79191C9F
S11341E001230B40D9B293690120014009020F4811
S11341F003400B4393610B4A7B685979936901200F
S113420001404901202083430B439361C046054B81
S1134210DA6880235B001340F9D0C046BD4602B083
S113422080BDC04600140040FFFFF0FFFFFEFFFF0B
S113423080B582B000AF0200FB1D1A708023DB053D
S11342409B78DBB2FA1D12789A4201D1002319E05F
S11342508023DB059B78DBB25BB2002B01DA1723EA
S113426010E08023DB0501229A718023DB05FA1D0F
S113427012789A70C0468023DB059B79DBB2002B51
S1134280F9D000231800BD4602B080BD80B500AF50
S11342908023DB058022D2059278D2B28021494264
S11342A00A43D2B29A70C046BD4680BD80B500AF05
S11342B0044B01221A70BFF35F8F62B6C046BD463D
S11342C080BDC0460C00002080B500AF074B07221C
S11342D01A60064B07229A60044B044A12690221B1
S11342E08A431A6100231800BD4680BD00140040B3
S11342F080B500AF074B38221A60064B38229A600B
S1134300044B044A526902218A435A61002318006B
S1134310BD4680BD00140040F0B591B000AF694BBC
S11343209847694B9847694B98470020684B9847D2
S113433003003B6100237B61664C32220023386911
S11343407969A04703000C0019002200624B002485
S1134350C918624108001100604C614A0023A0475B
S113436003000C0018005F4B984700205E4B9847F1
S11343705E4B9847182318229446BC4463441800A3
S11343805B4B9847182318229446BC44634401228B
S1134390DA70182318229446BC44634401221A712B
S11343A0182318229446BC44634401225A711823EA
S11343B018229446BC44634418004E4B98474E4B15
S11343C098474E4B98474E4B98474E4B98474E4B09
S11343D098474E4B98474E4B98474E4BBB63FB6BED
S11343E05A1C4D4B0321100098470B1E04D1BB6B84
S11343F018004A4B98474AE0FB6B9A1C464B032132
S1134400100098470B1E04D1BB6B1800444B98470F
S11344103DE0BB6B002B24D0BB6BBB600023FB6077
S113442000202B4B984703003B6000237B60294C02
S11344303A687B68B868F968A04703000C00190063
S11344402200254B0024C918624108001100234CA6
S1134450234A0023A04703000C001800214B98476F
S113446015E000201A4B984703001D0000231E008E
S11344702C4B00245B19744118002100174C2A4A64
S11344800023A04703000C001800164B98470C2388
S113449018229446BC4463441800244B98471C23B8
S11344A0FB181800224B98471E231822BA18D41858
S11344B00220204B984703002380FB6B0133FB63EE
S11344C08BE7C0466940000091340000AD42000013
S11344D0A13C0000AD480000571B00006D480000DF
S11344E0581B000001000020314200008D420000F2
S11344F0374100006D410000C9420000F142000054
S1134500A123000075210000A92D00000130000046
S113451001260000881300001948000065240000EB
S113452009240000BFCF6A00C0CF6A00E930000050
S1134530352B0000D5210000002243088B4274D3A0
S113454003098B425FD3030A8B4244D3030B8B4290
S113455028D3030C8B420DD3FF22090212BA030C99
S11345608B4202D31212090265D0030B8B4219D37A
S113457000E0090AC30B8B4201D3CB03C01A52419A
S1134580830B8B4201D38B03C01A5241430B8B42E2
S113459001D34B03C01A5241030B8B4201D30B03CB
S11345A0C01A5241C30A8B4201D3CB02C01A5241F2
S11345B0830A8B4201D38B02C01A5241430A8B42B5
S11345C001D34B02C01A5241030A8B4201D30B029E
S11345D0C01A5241CDD2C3098B4201D3CB01C01AB8
S11345E0524183098B4201D38B01C01A52414309C2
S11345F08B4201D34B01C01A524103098B4201D3B0
S11346000B01C01A5241C3088B4201D3CB00C01A1C
S1134610524183088B4201D38B00C01A5241430894
S11346208B4201D34B00C01A5241411A00D20146B9
S1134630524110467047FFE701B5002000F0F0F842
S113464002BDC0460029F7D076E7704703460B4306
S11346507FD4002243088B4274D303098B425FD377
S1134660030A8B4244D3030B8B4228D3030C8B42A3
S11346700DD3FF22090212BA030C8B4202D3121289
S1134680090265D0030B8B4219D300E0090AC30B5E
S11346908B4201D3CB03C01A5241830B8B4201D30B
S11346A08B03C01A5241430B8B4201D34B03C01AF4
S11346B05241030B8B4201D30B03C01A5241C30A6C
S11346C08B4201D3CB02C01A5241830A8B4201D3DD
S11346D08B02C01A5241430A8B4201D34B02C01AC7
S11346E05241030A8B4201D30B02C01A5241CDD26C
S11346F0C3098B4201D3CB01C01A524183098B42B7
S113470001D38B01C01A524143098B4201D34B019F
S1134710C01A524103098B4201D30B01C01A524102
S1134720C3088B4201D3CB00C01A524183088B4289
S113473001D38B00C01A524143088B4201D34B0072
S1134740C01A5241411A00D20146524110467047E4
S11347505DE0CA0F00D04942031000D340425340E9
S113476000229C4603098B422DD3030A8B4212D3A9
S1134770FC22890112BA030A8B420CD389019211DB
S11347808B4208D3890192118B4204D389013AD018
S1134790921100E08909C3098B4201D3CB01C01AED
S11347A0524183098B4201D38B01C01A5241430900
S11347B08B4201D34B01C01A524103098B4201D3EE
S11347C00B01C01A5241C3088B4201D3CB00C01A5B
S11347D0524183088B4201D38B00C01A5241D9D273
S11347E043088B4201D34B00C01A5241411A00D2F4
S11347F00146634652415B10104601D34042002BF0
S113480000D54942704763465B1000D3404201B56E
S1134810002000F005F802BD0029F8D016E7704723
S11348207047C046002B15D1002A13D1002906DB9E
S113483001DC002806D00020C043410802E08021AA
S11348400906002007B4024801A14018029003BDE4
S1134850D1FFFFFF03B4684601B5029800F010F9D8
S1134860019B9E4602B00CBC7047C046002B11D180
S1134870002A0FD1002900D1002802D00021C94309
S1134880081C07B4024802A14018029003BDC046A8
S113489091FFFFFF03B4684601B5029800F030F8B9
S11348A0019B9E4602B00CBC7047C046F0B5CE4694
S11348B0474615042D0C2E0080B50704140C3F0C3C
S11348C09946030C7E435D43674363437F19340C6D
S11348D0E4199C46A54203D980235B029846C4444C
S11348E04B46514343433604360C250C240465449B
S11348F0A4195918491920000CBC90469946F0BDDA
S1134900F0B557464E464546DE46E0B5040083B052
S11349100D00924699468B422FD82CD049465046DA
S113492001F0FAFD29000600200001F0F5FD331A1C
S11349309846203B9B4600D574E053465A46934024
S11349401F005346424693401E00AF4229D826D04A
S11349505B46A41BBD41002B00DA79E00022002352
S11349600092019301235A46934001930123424646
S11349709340009319E08242D0D900220023009290
S113498001930C9B002B01D01C605D600098019981
S113499003B03CBC90469946A246AB46F0BDA34248
S11349A0D6D900220023009201934346002BE8D07D
S11349B0FB0772081A4346467B080EE0AB4201D15E
S11349C0A2420CD8A41A9D41012024196D41002152
S11349D0013E24184D41002E06D0AB42EED9013ED3
S11349E024196D41002EF8D15B46009801990019F5
S11349F06941002B22DB2B005A46D3402A0044464F
S1134A00E2401C005B461500002B2CDB26009E4078
S1134A10330026004746BE403200801A9941009078
S1134A200191AEE7424620239B1A5246DA404146A2
S1134A3013004A468A4017001F4382E74246202358
S1134A409B1A2A0046469A402300F3401343D5E7B5
S1134A504246202300219B1A002200910192012248
S1134A60DA40019282E74246202326009B1ADE4068
S1134A702F00B446974066463B003343C9E7C0461F
S1134A80F0B583B016001F000090019101F050FDB5
S1134A9004000D0002000B0030003900FFF706FF90
S1134AA0009A019B121A8B41089920000A604B60FE
S1134AB0290003B0F0BDC046F8B54546DE4657466A
S1134AC04E460C03E0B54E00C90F88460D00610A3E
S1134AD0440F0C43C70019035800DB0F9B464B0AD5
S1134AE0510F0B43760D400D1900D200D84500D16B
S1134AF0AEE0351A002D00DCF6E000280FD1134398
S1134B0000D1DBE06B1E002B00D037E1BA1A9742CC
S1134B10BF41641A7F42E41B0126170024E0C64B00
S1134B209E424DD080231B041943382D00DD07E13C
S1134B301F2D00DD38E12020431B9A460B00504610
S1134B408340994613004846EB40184303005046FF
S1134B508240501E8241E9401A43BA1A611A9742B0
S1134B60A441170064420C1B230262D56402650A47
S1134B70002D00D1DFE0280001F0B0FC0300083B69
S1134B801F2B00DDD2E020223C00D21A9D40D440ED
S1134B909F4025439E4200DDC4E09E1B731C1F2BD7
S1134BA000DDF1E0202238002900D21AD8409140DB
S1134BB097402C000143781E8741DC4000260F43B8
S1134BC07B0709D00F233B40042B05D03B1DBB4280
S1134BD0BF417F42E4191F0023022CD5964B0136B6
S1134BE09E4200D19AE04546944BFF081C40600762
S1134BF0760564020743240B760D00212403230B5E
S1134C000C0D8F4A24051C431440330523435B00D9
S1134C10ED075B082B43380019003CBC90469946CD
S1134C20A246AB46F8BD6446044300D111E2040039
S1134C3067467B07C6D145466007FF080743E4087B
S1134C407D4B9E4230D024037605240B760DD4E7A9
S1134C50331A9A46002B78DD002831D076488642F4
S1134C60AED08020000401435346382B00DCE9E039
S1134C700A43511E8A410021D219BA42BF4109197F
S1134C807C4217000C192302D3D56B4B01369E428C
S1134C9000D13AE10120694B1C407B0807401F43C7
S1134CA0E007074364088BE723003B4300D1CBE1D3
S1134CB08022120314432403240B9EE72E007FE773
S1134CC00800104300D1B4E0581E002800D0DEE0F4
S1134CD0BA18BA429B4164185B42E41817000126D3
S1134CE02302A6D50226D5E7002D6ED1701C4005FF
S1134CF0400D012800DCF9E0B81A8446874280415F
S1134D00E51A40422D1A280200D489E0D71BBA4282
S1134D1092411C1B5242A51AD84629E74546002455
S1134D2000276AE7454CF61A2C4049E73D0028382D
S1134D30854000272EE7380001F0D0FB20301DE726
S1134D400A43511E8A41002107E7002B00D0F3E0FB
S1134D50701C43055B0D012B00DCADE0364B984223
S1134D6000D1D1E0BA18BA42BF4164187F42E419B5
S1134D70E707520817436408060021E72E488542D6
S1134D8000D193E01D00D0E629001F3EF140202B06
S1134D9000D18DE04022D31A9D402F437D1EAF41A8
S1134DA000240F43002644E72B000800203BD84092
S1134DB00300202D00D17DE04020451BA9400A437B
S1134DC0511E8A4100211A43C7E6002E50D01A4EC4
S1134DD0B04257D080266B429946360434434B4642
S1134DE0382B00DDD6E01F2B00DD35E12026F51A37
S1134DF02600AE40B2463E00DE40AC463500564684
S1134E002E436546AF407D1EAF41DC403743D71B80
S1134E10BA4292410C1B5242A41A0600D846A3E699
S1134E20644667462C4300D0A2E6002500260027EE
S1134E3006E71E00C4E6C046FF070000FFFF7FFF31
S1134E40FFFF0F801F2B63DC2020C31A080098404B
S1134E509C46834653461000D840030058461843E6
S1134E6063469A40531E9A4153460243D94003E78E
S1134E7026003E4306D0EB439946002BC7D0944E00
S1134E80B042ACD10C0017000600D84698E6904B0F
S1134E909A450BD08246E7E6002800D09EE0180031
S1134EA0104300D1E9E01C001700D846884E87E67D
S1134EB0002572E7002182E723003B43002E00D047
S1134EC0ABE0002B00D1E7E00B00134300D177E601
S1134ED0BA18BA42BF4164187F42E419230200D4CD
S1134EE0F2E07C4B17001C40060069E620003843C2
S1134EF0002ED1D100285BD11C00144300D1A8E0BE
S1134F001C001700D8465BE606000024002797E63D
S1134F1050460B002038C34099465346202B00D1FD
S1134F2095E0402350461B1A99400A43511E8A417A
S1134F304B4600211A439FE6002E30D126003E4303
S1134F4067D0DB439A46002B1CD0614EB04260D040
S1134F505346382B00DD96E01F2B00DD9FE0202612
S1134F60F31A26009E409C46B34653463E00DE405C
S1134F7033005E461E4363469F407B1E9F4153465B
S1134F80DC403743BF189742924164185242A41838
S1134F90060078E627437C1EA741002437E74C4EE1
S1134FA0B04236D080265B4236049A463443CFE77B
S1134FB01800104300D103E6B81A84466745AD4192
S1134FC0E01A6D42401B050200D42CE6D71BBA42FE
S1134FD092411C1B5242A41AD846F1E51800104312
S1134FE000D163E7F808670707438020E40800035B
S1134FF0044208D0DD08054205D1D20859071143FF
S11350000F002C00D8467B0FE4001C43FF00304EF9
S1135010D6E50C0017000600D2E5002B38D00B00B3
S1135020134300D142E7F808670707438020E408E8
S113503000030442E7D0CB080342E4D1D208490775
S113504011430F001C00DEE700270024D5E50021F2
S11350506BE700250027F3E54E462500203EF5408A
S11350604B462E00202B2DD04025ED1AAC40274373
S11350707C1EA74100243743C9E68024002524036D
S1135080134E0027DCE527437C1EA741002479E763
S11350900C0017000E4E93E50C00170090E55646E1
S11350A02300203EF34099465346202B0ED0402344
S11350B056469B1B9C4027437C1EA7414B4600241D
S11350C01F435FE70024D2E71700B2E50024F2E7AC
S11350D0FF070000FFFF7FFFF0B557464546DE4659
S11350E04E46E0B54C000E0387B0834692461D0041
S11350F08046360B640DCF0F002C4FD06F4B9C4273
S113510035D08023420F1B04F600134333439946E2
S1135110C30098466A4B00269C46002364440393CC
S11351202B031B0B9B466B00ED0F50465B0D01954B
S11351305ED0624A934253D05A46D1008022400F37
S1135140120402430A4393465246D1005C4A9446F1
S1135150002263443800684084460290E41A1643EF
S11351600F2E00D9B4E0574BB6009B599F4603005D
S1135170334399466CD1002398460233082603939F
S1135180CEE7CB464146039A0197022A65D1019B9B
S11351904A4C9C460023002298466BE003003343AC
S11351A099464ED0002E00D1BCE1300001F096F9B2
S11351B003000B3B1C2B00DDACE11D22D31A5A4625
S11351C00100DA4008398E401300334399465B46A8
S11351D08B40984600233C4C0026241A03939FE7F7
S11351E051465A46114329D1002293460232B1E76F
S11351F0594601431ED05B46002B00D19EE1584620
S113520001F06CF903000B3B1C2B00DD8FE1020065
S11352105946083A91408B461D21CB1A5146D94034
S11352200B0059460B4351469B469140264B0022A6
S11352301B1A8FE7002301229B468BE7514603226A
S113524088E700239846013304260024039367E784
S11352500323B14603930C2662E7032A00D15CE2E0
S1135260019B012A00D0E4E113409C460023002462
S11352700022984600211203130B0A0D12051A434B
S11352802305124C40462240134362465B00D2077A
S11352905B081343190007B03CBC90469946A246EC
S11352A0AB46F0BD002380229C4612039846034C73
S11352B0E0E70023014C00229846DBE7FF070000EB
S11352C001FCFFFFC46900000DFCFFFFFFFF0F801E
S11352D0D94500D939E100D134E1002346464D4691
S11352E09A46013C5B460A0E1B021A430B02170C3A
S11352F0039313041B0C3900280090460193FFF715
S11353001BF90200019B83465A4328003900914649
S1135310FFF798F9350C09040D43A9450DD95B46EF
S11353204544013BA84500D93AE1A94500D837E1F5
S113533002235B429C464544E3444B46EB1A390046
S113534018000493FFF7F8F8019B05004343390064
S113535004989946FFF776F9330409041B0C0B43B0
S1135360994509D943446A1E984500D91AE19945DB
S113537000D817E1023D43444A469B1A5A46120498
S11353802A4303999346100C0A0C914609045A4681
S1135390090C4E460D001204120C4543059151436D
S11353A07243704352190E0CB218954203D98025EA
S11353B06D02AC466044150C09041204090C28184B
S11353C05218834200D2CEE000D1C8E01D1A5346E1
S11353D09E1AB24592415242AB1A9A46984500D160
S11353E017E139001800FFF7A7F8019B05004343B4
S11353F0390050460493FFF725F904980B04310C47
S11354001943884209D941446B1E884500D907E1F4
S1135410884200D804E1023D4144049BCB1A1800A1
S113542039000493FFF788F8019B8246434339000F
S113543004980193FFF706F901980B043104090C51
S1135440194388420DD953464144013B884500D94C
S1135450E8E0884200D8E5E002235B429C464144F0
S1135460E244019B2D04CE1A51462943059D4F4623
S11354702A000B04080C1B0C5A4345437B43784316
S11354805B19170CFB189D4203D980256D02AC46AD
S113549060441D0C12041B04120C28189B1886422D
S11354A000D293E000D18EE001231943A04BE3180E
S11354B0002B00DC99E04A0700D09EE05A46D20156
S11354C006D55A469B4B1A4080239346DB00E318CB
S11354D0994A934268DD0123029A984C1A400023AA
S11354E0944698460022C5E680224B461203134296
S11354F00AD05B46134206D11A431203120BAC4680
S113550088468E4CB6E64B461A431203120BBC4631
S11355108A4CAFE603005A46283B9A400023914642
S1135520984657E6584600F0D9FF203040E603007D
S11355305246283B9A400021934677E600F0CEFF7E
S113554020305FE6884500D2C7E64B46DE075D089B
S113555043465B081E434346DB079A46C2E60025E2
S1135560924500D333E7039E5946B446E244B2451C
S1135570AD416D424544EB180139984507D2984234
S113558000D97FE000D1BCE01D1A8B461FE7984587
S1135590FAD1039D5545F2D943468B461D1A16E7A9
S11355A09B46CAE61500E7E65A46C90852070A436D
S11355B05B0590465C0D5A4601230299520219403C
S11355C0120B8C4656E6002B00D16FE746444A1E68
S11355D0B04529D91100864200D065E7039A934269
S11355E000D061E762E7012149420120C21A382A4A
S11355F021DD029B03409C4638E60F220A40042A20
S113560000D15BE70A00111D91429241524293443A
S113561054E7474BE318002BE5DD01225242F2E741
S11356201D00FAE69A461CE7B04239D86ED0110044
S11356303AE702933AE71F2A3CDC20239B1A0C002A
S11356405846994098404B1E99415B46D440D340FC
S1135650204308431A00430709D00F230340042BB7
S113566005D00100081D88429B415B42D2181302F9
S11356703AD50123029A01241A40002394469846FD
S11356800022F7E5022149428C46039DE344AC46DF
S1135690E244AA45AD416D424544ED182D1A96E603
S11356A08A1E03994D008D4289414942414476182E
S11356B003958FE71F204042C31A5846D840030081
S11356C0202A28D040205D46821A954029434A1E4C
S11356D091411943072300220B4009D00F230022D4
S11356E00B400800042BBDD1010053075202120BDA
S11356F0C9081943012388460299002419408C469D
S1135700B8E55245BED88B46002560E6039D9D4210
S1135710C6D3110062E70025D8E780225B46120356
S11357201A43019B1203120B9C468846034CA1E5C5
S1135730FF030000FFFFFFFEFE070000FF0700005D
S1135740F0B557464546DE464E46E0B50C0398464E
S11357504E00230B87B0070092469B46760DCD0F73
S1135760002E6BD06D4B9E4235D080245B46420F99
S11357702404DB0014431C43C3009946684BA3462E
S11357809C46002300276644029343461C035A00A8
S1135790DB0F5046240B520D984600D176E05F4B48
S11357A09A426DD08023410F1B040B435C49E400F3
S11357B08C461C43C300002062444146B61869402D
S11357C0721C0191944607430F2F00D9B0E0554A4B
S11357D0BF00D25997465B460343994600D087E001
S11357E000239B46023308270293CEE742460192E8
S11357F0022867D0032800D10EE2012800D062E11C
S1135800002300240022994601990140CDB20021D1
S113581012030B0D120B1B051343434A24051340BB
S11358201C436400ED0764082C434846210007B07C
S11358303CBC90469946A246AB46F0BD034399460C
S11358404FD05B46002B00D189E1584600F046FE5C
S113585003000B3B1C2B00DD7AE11D22D31A3A0016
S113586001005C46DA4008398C4013008F40234322
S11358709B46B94600232D4E0027361A029384E72F
S1135880534623432AD10024022096E75346234358
S113589020D0002C00D157E1200000F01FFE0300AF
S11358A00B3B1C2B00DD49E11D21CB1A51460200A4
S11358B0D9405346083A944093400C431B4A121A69
S11358C000207AE70125019B144C1D40002300228F
S11358D099469CE70024002201206EE753460320EA
S11358E06BE700239B4601330427002602934CE711
S11358F0032381460C27029347E7802200230025D7
S113590012039946054C82E75C464B4602986FE7C2
S11359105C464B46019502986AE7C046FF070000C3
S113592001FCFFFF046A0000FFFF0F800DFCFFFF76
S11359304A464946170C1A0C1B041B0C0804190090
S1135940000C41431500884619007D4379430395B3
S113595089462900150045434D44029545462D0CC2
S1135960AA46029D5544A94506D98A468021490282
S11359708946CA4451460391290C049141460904BD
S11359802D04090C88462900250C24044144240CC8
S11359900591210041438846210079438A466843A2
S11359A0414650448146080C48446F43824503D91C
S11359B08021490289464F44010C894639004944F3
S11359C0029141460F0404993F0C88460004C01913
S11359D080444146049159460F0C0904090C884639
S11359E059438A4639005143894641464A43514600
S11359F0090C8B467B43D2185A44934203D9802323
S1135A005B029B46D94451460904090C8A46414627
S1135A1061437C43130C12044B445244A1468A460E
S1135A203C0041466C434D4351464D440F0C7D1997
S1135A30A94503D98021490288464444049F039917
S1135A40B84641448B46834580414142884651468D
S1135A5008042F04000C3F18584602991018894670
S1135A60904292414F44BA46524299469346C244A8
S1135A70D144CB448F42BF41C245894199459B41A2
S1135A80934592417F4249422D0C52420F435B425F
S1135A9013437F19FF185B463C19DB0D059A64021A
S1135AA01C43430213435D1EAB415A46C00D0343DE
S1135AB052021343E20156D501205A08034013430E
S1135AC0E207134364085A48604400284DDD5A072E
S1135AD009D00F221A40042A05D01A1D9A429B416C
S1135AE05B42E4181300E20104D58020514AC0004F
S1135AF014406044504A904200DDE3E60125DB088F
S1135B0062071A436402019B9146220B4405640D0B
S1135B101D407CE6802259461203114208D01442EB
S1135B2006D122431203120B45469946434C6EE6B6
S1135B305B461A431203120B404C68E603005446BA
S1135B40283B9C400023B9E600F0C8FC2030A6E6C0
S1135B500300283B9F400023BB4699468AE600F099
S1135B60BDFC203074E6B446ADE701252A1A382A74
S1135B7006DD019B00241D4000230022994646E6D1
S1135B801F2A21DC20252000AD1A1E00AB40A840AE
S1135B90D6405D1EAB4130431843D440430709D07F
S1135BA00F230340042B05D00300181D98429B418A
S1135BB05B42E418230221D50125019B01241D40E9
S1135BC000230022994622E61F2521006D42281A4F
S1135BD0C1400800202A1DD05F35AA1A94402343EF
S1135BE05C1EA341072503431D400022002D09D05C
S1135BF00F2200241A401800042AD6D10300650796
S1135C006402220BDB082B4301259946019B0024E7
S1135C101D40FCE50024E2E7802201251203224313
S1135C2001991203120B0D409946044CEFE5C0464E
S1135C30FF030000FFFFFFFEFE070000FF07000058
S1135C40F0B54646D6464F460C03C0B5CD0F4E00C0
S1135C50610A440F0C43C1005800400D84468A4633
S1135C600F001903500F490A0143C648760DA84690
S1135C70DB0FD200844500D1D8E001204340AB4281
S1135C8000D1A6E06046351A002D00DC05E10028AD
S1135C9010D10B00134300D1D7E06B1E002B00D0B2
S1135CA04BE153469F1ABA458041641A4042241A74
S1135CB001261EE0B34B9E4248D080231B041943A7
S1135CC0382D00DD19E11F2D00DD4CE120230F00EC
S1135CD05B1B10009A409F40E840531E9A41E940E4
S1135CE0074317435346DF1B611ABA45A441644274
