S0130000466561746865725F554C502E7372656302
S1130000F0200020711800006D1800006D18000029
S113001000000000000000000000000000000000DC
S11300200000000000000000000000006D18000047
S113003000000000000000006D1800006D180000B2
S11300406D180000DD100000910400006D18000020
S11300506D1800006D1800006D1800006D18000088
S11300606D1800006D1800006D1800006D18000078
S11300706D1800006D1800006D1800006D18000068
S11300806D1800006D1800006D1800006D18000058
S11300906D1800006D180000310100006D1800009B
S11300A06D1800006D1800006D1800006D18000038
S11300B00000000010B5064C2378002B07D1054B37
S11300C0002B02D0044800E000BF0123237010BDC0
S11300D01000002000000000343D0000084B10B563
S11300E0002B03D00749084800E000BF0748036815
S11300F0002B00D110BD064B002BFBD09847F9E72D
S11301000000000014000020343D0000343D0000D5
S11301100000000003681A8C002AFCD10222197E18
S11301200A431A7603681A8C002AFCD1704700002F
S113013070B5284B1C6823689A795D7915400122B3
S1130140154218D09A7161698B1C636123689B8C7A
S11301509BB20B80238B013B9BB22383002B29D0C2
S1130160637F002B07D02368DB795BB2002B02DBB3
S11301702000194B984704231D420BD02268937129
S1130180E27E023B1A4205D0A27E1A4202D020002F
S1130190E368984702231D420BD022689371E27EE4
S11301A0DB181A4205D0A27E1A4202D0236920002D
S11301B0984770BD21680A71217F0529DBD1237717
S11301C0E37E1342D7D0A37E1342D4D02000A36889
S11301D09847D0E7E400002015010000036818697F
S11301E0431E9841C0B27047042270B50400084B06
S11301F006681A602000074DA8470028FAD1022398
S11302003288134333802000A8470028FBD170BDF7
S113021000E100E0DD010000042270B505000A4B96
S11302200468DA672800094EB0470028FAD1022290
S1130230074B2381A3812388934323802800B0475D
S11302400028FBD170BDC04604E100E0DD010000E0
S1130250FF81FFFF70B50A4B04000668984700232E
S1130260A386E3862000074DA8470028FAD101237E
S11302703288134333802000A8470028FBD170BD87
S113028019020000DD010000F8B505000C00076844
S113029028000B4EB0470028FAD12B79002B08D048
S11302A01720012B04D1BC612800B0470028FBD1E2
S11302B0F8BD044B17209C42FAD8A4B23C83F3E760
S11302C0DD010000FFFF000070B504000568200098
S11302D0064B98470028FAD12379002B03D0012B31
S11302E000D1A86970BD288B80B2FBE7DD01000056
S11302F0F8B506000D00140007683000104B98474D
S11303000028FAD13379002B0DD0012B16D11730E8
S1130310012C07D80834A400E5513000084B984755
S11303200028FAD1F8BD1720022CFBD8054B9D42BA
S1130330F8D81034ADB26400E553EEE71A20F1E7C3
S1130340DD010000FFFF0000F8B580231400204AFF
S1130350016051695B000B435361002205001D4B92
S11303601A611D4B9847A3782B711C4B1D60227991
S11303702188D2032B680A4392B21A80A278002AF9
S113038013D01720012A0FD11A8892B21A80E2786A
S1130390002A03D0802219880A431A800022A16807
S11303A028000F4B98470020F8BD04221988172015
S11303B00A431A80E678002EF6D13200A16828009C
S11303C0074FB8470122E1682800B847EBE7C04669
S11303D0000400400010004055020000E800002026
S11303E0F10200000A2A09D0072A07D90379002B51
S11303F00FD0012B0FD11633092A0DD8931C9B0063
S1130400195001239340818E0B439BB283860023B2
S113041002E00A2AF2D917231800704710B50268BF
S11304200A2908D10B4B538101238B40C28E1343FD
S11304309BB2C38610BD0123072902D88B409BB20F
S1130440F1E70C00083CA340C0241B02A400234095
S1130450E9E7C0460080FFFF10B502680A2907D10A
S11304600A4B138101228A40C38E9343C38610BD75
S11304700123072902D88B409BB2F2E70C00083C09
S1130480A340C0241B02A4002340EAE70080FFFF2E
S1130490F7B5214B1C68E38EA28E26681A400092A1
S11304A0B38975891D402BB2002B07DA13005B0555
S11304B001D5236B9847194BB381F7BDEBB2002BE1
S11304C015D000270123BB4001932B4208D0009B89
S11304D001223B41134203D0BB1C9B001B5998478C
S11304E06B469B880137B381082FEBD1E5E7802762
S11304F07F003D4206D0009B3B4201D0A36A98474F
S1130500B781DAE78027BF003D42D6D0009B3B424B
S1130510F6D0E36AF3E7C046E80000200080FFFF5E
S113052007230168CA691A42FCD17047F0B5060076
S11305308DB031600800974B17000D009847964A1C
S1130540052800D115E1012383400400D169123448
S11305500B43D3613B7B0AAAE4B213701100200061
S11305608E4B984720008E4B98478E4B387B00214A
S113057098472B681C209B0700D5F8E001232C68C2
S113058017381C4000D0F2E013332B6033680BADF6
S1130590019318007F4B984780230290F8692B70D1
S11305A07F3B6C70EC70AB703C6A002803D1010097
S11305B07D4B0198984702232870000C6B70C0B2E1
S11305C029007A4B9847002C04D101210198764BDD
S11305D09847040002232C70240C6B70E0B2734B18
S11305E029009847BB8AF380FB8A33813A7E8023B3
S11305F0002A06D16E4B02329B7813405E1EB34133
S1130600DB01BA683E6916431E437B1DDB7F002B6A
S113061002D08023DB051E43BB6A1E433B002C3300
S11306201B78002B03D180239B049A4202D18023A0
S11306301B051E433B002D331B78002B02D0802367
S11306401B041E433B002E331B78002B02D0802357
S1130650DB031E43019B019A1B681E43019B1E6022
S113066080235B005360029BFA261233D8B2514BAD
S113067098473B68B6005E437B68069007934E4BF1
S113068098474D4B02900391700098470490059150
S1130690494B388E9847494C089009910298039920
S11306A0474A484BA04702000B0008980999A04705
S11306B00022454C454BA0473F4B040030000D0041
S11306C0984702000B00200029003C4CA047404DF5
S11306D002000B0002980399A847049A059B3A4C20
S11306E0A04700223B4BA847049A059B3A4CA047DD
S11306F03A4B984780230490BA689B049A4245D1A8
S1130700FA23079C9B005C43029A039B2E4E100025
S11307101900B047284B029003912000984700220B
S11307202F4B264EB0472C4E02000B000298039923
S1130730B0470022274BA847284B9847294B061E51
S11307401DD02100069898470238831B049A402044
S1130750FF2A0CD8FF2B0AD8FF20150000041B0425
S113076003400020360635431D43019BDD600DB078
S1130770F0BD0223116A18240B431362EAE66100F8
S1130780069A481E80189847431EDFE70026330068
S1130790DCE7C04695120000000400403917000051
S11307A0D9160000F91000003D11000011180000D6
S11307B0002000415D17000079380000612C000022
S11307C095D626E80B2E113ED91F000000002440C8
S11307D0613100000000F03FF92500008D37000072
S11307E000000840591A000002220368197E1142D1
S11307F006D01A765B8B412013420AD1002008E010
S11308005A8B5207FAD5C0221820596892020A431B
S11308105A60704770B500220126022401680B7EDD
S1130820334002D10D7E254201D0002005E0013283
S1130830038992B29342F2D8122070BD802310B57E
S11308400468DB026268134363606162024B984789
S11308500123237610BDC04615080000F0B50468D6
S113086085B0236801901B01DB0F4D8803934B7AFD
S11308700E00002B02D0897A474B98476368474F94
S11308803B406360727A3388317A92035B0013438E
S11308900122002919D080221202134363620198B5
S11308A03F4B984763683B406360002863D10198DD
S11308B03C4B984700285ED178233288717A120A1B
S11308C01343012289035B000A43134363620198C3
S11308D0334B9847039B0200002B17D07388012BDE
S11308E014D180236168DB020B436360002A42D188
S11308F001982C4B984700283DD1013DAFB205002B
S1130900294B9F4206D10295002520E063681F40D1
S11309106760EBE72022638B13423AD0019BDB7ABA
S1130920002B04D0039B002B27D1002F27D0019844
S11309301E4B98476B1C9BB20293230028331B78F1
S1130940726801985355164B9847051E1DD0019B9C
S1130950164F9B7A002B06D00198B847C0236268D3
S11309609B02134363600198B84728002834227817
S1130970736802995A5405B0F0BD012FD7D1802273
S11309806368D202134363600295013FBFB2029DC4
S1130990B6E74120EFE7C0463D080000FFFFFBFF3C
S11309A015080000E9070000FFFF00002105000012
S11309B0F7B50F004B88050001932A4B046898474C
S11309C07B7A002B03D0B97A2800274B98476368B9
S11309D0264A134063607A7A3B88397A5B00920333
S11309E01343002902D080221202134363622800B9
S11309F01F4B9847061E15D128001E4B9847061E0C
S1130A0010D10090009B019A93420DD10026AB7A3D
S1130A10002B07D0134B28009847C02362689B0221
S1130A20134363603000FEBD2022638B134216D053
S1130A3028000C4B98477B68009A28009A5C230096
S1130A4028331A700A4B9847061EE0D1009A638B2C
S1130A500132009204221342D4D01E26D7E7412645
S1130A60E0E7C046210500003D080000FFFFFBFF52
S1130A7015080000E9070000012310B58372C37252
S1130A80014B984710BDC0465D080000012310B516
S1130A908372C372014B984710BDC046B109000070
S1130AA010B508210148024B984710BD2C000020C6
S1130AB05904000030B585B06A46012300240C4D6A
S1130AC0937013710B4928000B4BD470148002945B
S1130AD00394984721002800084B98472800084BA6
S1130AE09847082207492800074B984705B030BDAE
S1130AF02C0000200020004049030000890200006F
S1130B00E9010000A10A0000E503000070B50C4CE7
S1130B1005000C4B20009847002241190A4B200085
S1130B2098470A4B08212000984780230222DB05BE
S1130B305A705A78022AFCD1BFF34F8F30BF70BD70
S1130B402C000020C9020000F10200001D04000076
S1130B5070B50C4C05000C4B20009847002241193D
S1130B600A4B200098470A4B08212000984780230D
S1130B700422DB055A705A78042AFCD1BFF34F8F44
S1130B8030BF70BD2C000020C9020000F10200003B
S1130B901D04000070B588B06B46DC1D002376226E
S1130BA023700121D03320002F4EB0472378582BD7
S1130BB058D12E4D02AC2988002944D118222C4B3F
S1130BC0200098478823762218212000B0476278B5
S1130BD0237812021343E2782B80A3781202134382
S1130BE062796B80237912021343E279AB80A37993
S1130BF012021343627AEB80237A12021343E27ADD
S1130C002B81A37A12021343627B6B81237B120232
S1130C101343E27BAB81A37B12021343627CEB811F
S1130C20237C12021343E27C2B82A37C1202134323
S1130C30627D6B82237D12021343AB82E27DA37D2E
S1130C4012021343EB82A023762223700121553331
S1130C502000084DA8472523762223700121CF3395
S1130C602000A84708B070BDA50F00006400002054
S1130C70633C0000550F0000F0B589B004900622D3
S1130C800021724B06A89847F7237622062106A86E
S1130C906F4CA04706AB59789A781B7809021B045D
S1130CA00A431A4306AB0592197906AA5B79D278EE
S1130CB0090212040B431343664A1B091088654951
S1130CC01A11121ADB1040001B1A0220095E52434B
S1130CD05943604B121304201B5EC9125A435E4BE6
S1130CE092138918196005234B43049A80331B120D
S1130CF0012753600A00594ECB177F42B6185F4153
S1130D00574C3200009601973B0030003900A04751
S1130D10029003914F4B0820185E009A019BC11763
S1130D20A047030D0D031D434A4B04030A20185E1C
S1130D304B4E029A039BC117B0470B069C46020A0E
S1130D4060460B12024312196B41190080231000F4
S1130D5000221B02801859413E4BDA880023B04719
S1130D604C102300CD172B436BD03A4B1020185E48
S1130D70029A039BC117B04702900391354B0E2092
S1130D80185E009A019BC117B047C60B4B0433434E
S1130D90420402980399801859418022059B52030A
S1130DA01B09D31ADE17009001915A08F107114369
S1130DB00022D807274B0C269E5FF300009E019F5C
S1130DC092197B41264E801A9941264A0023B04746
S1130DD022002B00244CA047CB04440B1C434B1390
S1130DE000931C4B06001620185E0F0022001C4DB9
S1130DF0009BC117A8472200009BA847CB01440EC3
S1130E001C43144B4D161420185E3200A4197D4166
S1130E103B00134EC117B0474E03C20C3243CB14F0
S1130E20A4185D412906220A0A430A492B121224F6
S1130E300C5FE617250F3101200129438018594121
S1130E400400049B1C6009B0F0BDC046633C000074
S1130E50A50F0000640000207C000020000CFEFFB1
S1130E60CD1D0000350C0000451D000073B50B4B73
S1130E700400684698470A4B00989847094E002298
S1130E80094BB047094DA847094B20600198984782
S1130E90084A094BB047A847606073BD790C00004D
S1130EA079380000612C00000000703FE938000030
S1130EB0F53700007B14AE47E17A843F64231D4A72
S1130EC010B5012113601C4B4942536000239182E9
S1130ED0511DCB7711002C310B7011002D310B708B
S1130EE011002E3193601373137693620B70D73312
S1130EF01386C0239B031361104B114CD382114BF7
S1130F001149D361114B20001362114B98470721FB
S1130F102268D3690B40FCD102211068014311609F
S1130F201021E488508B084203D10133A342F9D342
S1130F30518310BD80000020480D000010270000E0
S1130F40B400002002001600000C0042020017004A
S1130F502D050000BFB515000A000C0069460932D2
S1130F60D208D2008A1A00AF954613706B4601333B
S1130F70220001001800084B98476B46BB60002311
S1130F80391D7B73BB733B730134044B0448BD8030
S1130F90FC809847BD46BFBD513C00008D0A00004F
S1130FA0B4000020F0B589B000916946CB710123EB
S1130FB000240E4E0700C81D02A995B248604B805C
S1130FC030000B4B0D804C728C720C7298476B4640
S1130FD01B8805A94B803000064B0D804F604C7276
S1130FE08C720C72984709B0F0BDC046B400002062
S1130FF08D0A0000790A000037B56B469C1D00235A
S11310001922237001210F3320000B4DA8472378A8
S1131010332B10D16B46DC1D4F2319222370012181
S11310202F3B2000054DA8471023192223700121CE
S113103013332000A84737BDA50F0000550F00004B
S113104037B5A82304000C4D192206216846A84789
S11310506B465A781B781202134323806B46DA7866
S11310609B781202134363806B465A791B791202F0
S11310701343A38037BDC046A50F0000F7B5114B3D
S11310800400684698476B460F4F0020185EB84727
S11310900E4E0F4A0F4BB0470F4DA8476B462060CA
S11310A00220185EB8470A4A0A4BB047A8476B4665
S11310B060600420185EB847054A064BB047A8474D
S11310C0A060F7BD41100000F5370000612C00005E
S11310D074479CA1FAFF1F3FE9380000012210B5B4
S11310E0034B9A71034B1B68002B00D0984710BD2B
S11310F0001C0040EC00002037B50D4C050023789F
S1131100002B01D000290CD001A91120094B0D702E
S113111098471120084B98470123002065702370DD
S11311203EBD63780800AB42FAD01D20F8E7C04604
S1131130C000002039170000D9160000394A030006
S113114000B50800934234D008D88422D2059342D3
S113115014D0354A93421FD0002317E0334A9342F8
S11311603AD0334A934244D0324A9342F4D10023D2
S113117003290BD800F066FC502A2C2E00230329E7
S113118004D800F05FFC430205072B4B180000BD98
S11311902A4BFBE72A4BF9E700230329F6D800F092
S11311A051FC37020406274BF0E7274BEEE7274BA9
S11311B0ECE700230329E9D800F044FC2C020406E0
S11311C0234BE3E7234BE1E7234BDFE7234BDDE747
S11311D0234BDBE7234BD9E700230329D6D800F0C0
S11311E031FC1D020406204BD0E7204BCEE7204BF8
S11311F0CCE700230329C9D800F024FC120204061A
S11312001C4BC3E71C4BC1E71C4BBFE71C4BBDE7A2
S11312100323BBE71B4BB9E71B4BB7E71B4BB5E7F6
S11312201B4BB3E7000800420004004200100042D8
S113123000040043000C0042030005000300060004
S1131240030007000300010003001E0003001F0049
S11312500300090003000A0003000B00030011004F
S1131260030012000300130003000D0003000E002E
S113127003000F0003001700030018000300190007
S113128003000400030008000300100003000C0026
S11312900300160070B586B06946094B6A4670CBE8
S11312A070C170CB70C1002399005158814202D1A2
S11312B0D8B206B070BD0133062BF5D10020F8E793
S11312C0743C000070470000154BC001C018302367
S11312D070B51A421CD0C025ED02130602D5802336
S11312E0DB031D43F023A0241B0516061E40E40562
S11312F08BB21C43D02334432C4384621B060C0C56
S1131300234333432B438362930604D5416170BD69
S11313108025AD02E1E7D306F9D58161F7E7C04640
S11313200028004070B580268025F603164C310055
S11313302D0402220020A047290002220020A047F9
S1131340012204210020A04701228021100049002D
S1131350A0470122802110008900A047012210210A
S11313600020A047012220210020A04701220421BF
S11313701000A047310003220120A04729000322C6
S11313800120A04770BDC046C9120000094B19686E
S113139000290BD1EFF31080074A002805D172B65B
S11313A0BFF35F8F05490870012111701A6801327B
S11313B01A607047C4000020C80000200C00002000
S11313C0084B1A68013A1A601B68002B09D1064BB6
S11313D01B78002B05D00122044B1A70BFF35F8FDA
S11313E062B67047C4000020C80000200C00002032
S11313F0802303495B00CA681A42FCD07047C04688
S1131400000C00408023DB059A78824202D100213F
S1131410080070479A78172152B2002AF8DB01229B
S11314209A7198709A79002AFCD0F0E770B5082870
S113143006D800F007FB0805053030130B1628000A
S11314400024200070BD164B1C69FAE7154B1C7D67
S11314502407A40F601C144C4443F2E7104B5C694E
S1131460EFE70F4D00242B689B07EAD50F4B9847F5
S113147024222B681340042B10D120000C4B9847D6
S1131480AC68A4B2E8E70B4B00241B789B07D8D5C3
S1131490034BDC68D5E780242402D2E7064CD0E76E
S11314A0CC000020000C004000093D00F1130000B6
S11314B05D170000280C0040006CDC027FB580231F
S11314C003221E211B4C5B00A3601B4B02209A606D
S11314D01A4A1B4D53681B4E8B435360A847802305
S11314E0227D5B42134340222375237D934323755E
S11314F0154B98470123002401A9B371737133710B
S11315004B6005330B702000104B4C700C724C7206
S1131510984720000E4B98470E4B2000984731798E
S11315200D4BC9B298470D4B984201D82000A847EB
S11315307FBDC046000C0040001400400040004144
S1131540051400000004004081150000A1150000EE
S11315503916000071160000591A0000001BB7006C
S113156004228240044B05485B6818401040431E27
S11315709841C0B27047C04600180040FC07000004
S11315804023054A51690B4353610123034A1370F5
S113159011781942FCD17047000400400018004043
S11315A070B54B7805000C78002B02D08023DB004B
S11315B01C434B7A002B02D080231B011C434A6836
S11315C0012A13D9531E13400220002B07D0802375
S11315D012049B001A43144308E001334000904274
S11315E0FBD38022520114431B041C430B7A002BAF
S11315F002D080239B011C4328000B4EB0470028D7
S1131600FAD10A4B98478021094BAA00D218136AD1
S113161049000B401C4314622800B0470028FBD14A
S1131620044B984770BDC046611500008D1300003F
S113163000180040C113000010B504002000084B3E
S113164098470028FAD1074B9847074BA400E418A1
S11316508023226A5B0013432362044B984710BD26
S1131660611500008D13000000180040C113000034
S1131670F8B504002000124B98470028FAD1114F06
S11316800834A400104B9847E059104B0007000F92
S11316909847E659E459F6040D4BF60F0500240C5F
S11316A09847002E08D1012C04D928002100094BA9
S11316B0984705002800F8BD0134E540FAE7C04624
S11316C061150000001800408D1300002D14000067
S11316D0C1130000591A000010B50400074B9847C5
S11316E0074BA000C11840230800CA6F1A43CA67F9
S11316F0C26F1A42FCD0034B984710BD8D130000F3
S113170004180040C113000010B50400074B9847AB
S1131710074BA000C11840230800CA6F9A43CA6748
S1131720C26F1A42FCD1034B984710BD8D130000C1
S113173004180040C113000070B50D00054B0400EF
S113174098470F222B7820341340034AA400A35057
S113175070BDC046091700000018004010B5040011
S1131760064B98472034064BA400E458054B240745
S1131770240F98472000044B984710BD8D13000098
S113178000180040C113000071160000D37830B572
S1131790002B35D11478802C03D0802324065B02DF
S11317A0234302255478AC4306D19478002C24D1E9
S11317B08024A402234341605478013C012C01D8C5
S11317C0124C2340A0248DB2E4052C431C438462B4
S11317D0D0240D0C24062C431C438462D478002CA2
S11317E00AD15B0303D59378012B0CD18161537823
S11317F0013B012B00D8816030BDC024E402D9E74D
S113180041600023DEE74161F1E7C046FFFFFBFFD3
S113181010B503000A004409C1090020814202D125
S11318200449E00140181F210B401E399940024B26
S1131830984710BD002800408D1700007047000035
S113184010B5054B9847054B9847054B9847054BF2
S11318509847054B984710BDBD14000025130000A0
S11318603D1800003D1800003D180000FEE7000090
S11318701148124970B5884204D00023104CCA188C
S1131880A24213D300210F4B0F4A934212D3FF21DC
S11318900E4B0F4A8B43936080230E4A51680B43CF
S11318A053600D4B98470D4B9847FEE7C5580433DA
S11318B01560E4E702C3E8E7343D000000000020BF
S11318C01000002010000020F000002000000000A4
S11318D000ED00E000400041093C0000E118000078
S11318E0F0B5444B87B09847434B98470122434B8C
S11318F01A70BFF35F8F62B6414B00209847414E88
S1131900322200230021B04700273F4E3F4A0023E4
S11319103F4C80197941A0473E4B98478023DB0513
S11319209A78002A40D13C4B3C499A691202120A27
S11319309A619A690A4040219A619A698A439A6134
S11319409A6934398A43110004220A439A61802235
S11319509969520011439961202198690143996161
S1131960D9681142FCD0072202211A609A601A69D0
S11319708A431A612A4B98472A4B98472A4B98471F
S11319802A4B984701352A4C03212800A0470029F7
S113199016D1FA20274BC000984703A8264B984736
S11319A001A8264B9847EDE79A7852B2002ABADB91
S11319B001229A7100229A709A79002AFCD0B2E727
S11319C0681C0321A047002903D1FA201C4BC00046
S11319D0E2E70B4B00209847FA220023D200094C7F
S11319E00021A047002380197941084A084CA047E8
S11319F0084BD1E741180000C51200000C0000207C
S1131A0071160000CD1D0000571B0000581B00007C
S1131A108D1D00000100002000140040FFFFF0FFB6
S1131A20B50A0000BD0E0000F90F0000950B000080
S1131A30391D0000510B00007D1000006D0E0000E8
S1131A400D0B000002B4714649084900095C4900C5
S1131A508E4402BC7047C046002243088B4274D3B4
S1131A6003098B425FD3030A8B4244D3030B8B429B
S1131A7028D3030C8B420DD3FF22090212BA030CA4
S1131A808B4202D31212090265D0030B8B4219D385
S1131A9000E0090AC30B8B4201D3CB03C01A5241A5
S1131AA0830B8B4201D38B03C01A5241430B8B42ED
S1131AB001D34B03C01A5241030B8B4201D30B03D6
S1131AC0C01A5241C30A8B4201D3CB02C01A5241FD
S1131AD0830A8B4201D38B02C01A5241430A8B42C0
S1131AE001D34B02C01A5241030A8B4201D30B02A9
S1131AF0C01A5241CDD2C3098B4201D3CB01C01AC3
S1131B00524183098B4201D38B01C01A52414309CC
S1131B108B4201D34B01C01A524103098B4201D3BA
S1131B200B01C01A5241C3088B4201D3CB00C01A27
S1131B30524183088B4201D38B00C01A524143089F
S1131B408B4201D34B00C01A5241411A00D20146C4
S1131B50524110467047FFE701B5002000F0F0F84D
S1131B6002BDC0460029F7D076E7704703460B4311
S1131B707FD4002243088B4274D303098B425FD382
S1131B80030A8B4244D3030B8B4228D3030C8B42AE
S1131B900DD3FF22090212BA030C8B4202D3121294
S1131BA0090265D0030B8B4219D300E0090AC30B69
S1131BB08B4201D3CB03C01A5241830B8B4201D316
S1131BC08B03C01A5241430B8B4201D34B03C01AFF
S1131BD05241030B8B4201D30B03C01A5241C30A77
S1131BE08B4201D3CB02C01A5241830A8B4201D3E8
S1131BF08B02C01A5241430A8B4201D34B02C01AD2
S1131C005241030A8B4201D30B02C01A5241CDD276
S1131C10C3098B4201D3CB01C01A524183098B42C1
S1131C2001D38B01C01A524143098B4201D34B01AA
S1131C30C01A524103098B4201D30B01C01A52410D
S1131C40C3088B4201D3CB00C01A524183088B4294
S1131C5001D38B00C01A524143088B4201D34B007D
S1131C60C01A5241411A00D20146524110467047EF
S1131C705DE0CA0F00D04942031000D340425340F4
S1131C8000229C4603098B422DD3030A8B4212D3B4
S1131C90FC22890112BA030A8B420CD389019211E6
S1131CA08B4208D3890192118B4204D389013AD023
S1131CB0921100E08909C3098B4201D3CB01C01AF8
S1131CC0524183098B4201D38B01C01A524143090B
S1131CD08B4201D34B01C01A524103098B4201D3F9
S1131CE00B01C01A5241C3088B4201D3CB00C01A66
S1131CF0524183088B4201D38B00C01A5241D9D27E
S1131D0043088B4201D34B00C01A5241411A00D2FE
S1131D100146634652415B10104601D34042002BFA
S1131D2000D54942704763465B1000D3404201B579
S1131D30002000F005F802BD0029F8D016E770472E
S1131D407047C046002B15D1002A13D1002906DBA9
S1131D5001DC002806D00020C043410802E08021B5
S1131D600906002007B4024801A14018029003BDEF
S1131D70D1FFFFFF03B4684601B5029800F010F9E3
S1131D80019B9E4602B00CBC7047C046002B11D18B
S1131D90002A0FD1002900D1002802D00021C94314
S1131DA0081C07B4024802A14018029003BDC046B3
S1131DB091FFFFFF03B4684601B5029800F030F8C4
S1131DC0019B9E4602B00CBC7047C046F0B5CE469F
S1131DD0474615042D0C2E0080B50704140C3F0C47
S1131DE09946030C7E435D43674363437F19340C78
S1131DF0E4199C46A54203D980235B029846C44457
S1131E004B46514343433604360C250C24046544A5
S1131E10A4195918491920000CBC90469946F0BDE4
S1131E20F0B557464E464546DE46E0B5040083B05D
S1131E300D00924699468B422FD82CD049465046E5
S1131E4001F0FAFD29000600200001F0F5FD331A27
S1131E509846203B9B4600D574E053465A4693402F
S1131E601F005346424693401E00AF4229D826D055
S1131E705B46A41BBD41002B00DA79E0002200235D
S1131E800092019301235A46934001930123424651
S1131E909340009319E08242D0D90022002300929B
S1131EA001930C9B002B01D01C605D60009801998C
S1131EB003B03CBC90469946A246AB46F0BDA34253
S1131EC0D6D900220023009201934346002BE8D088
S1131ED0FB0772081A4346467B080EE0AB4201D169
S1131EE0A2420CD8A41A9D41012024196D4100215D
S1131EF0013E24184D41002E06D0AB42EED9013EDE
S1131F0024196D41002EF8D15B46009801990019FF
S1131F106941002B22DB2B005A46D3402A00444659
S1131F20E2401C005B461500002B2CDB26009E4083
S1131F30330026004746BE403200801A9941009083
S1131F400191AEE7424620239B1A5246DA404146AD
S1131F5013004A468A4017001F4382E74246202363
S1131F609B1A2A0046469A402300F3401343D5E7C0
S1131F704246202300219B1A002200910192012253
S1131F80DA40019282E74246202326009B1ADE4073
S1131F902F00B446974066463B003343C9E7C0462A
S1131FA0F0B583B016001F000090019101F050FDC0
S1131FB004000D0002000B0030003900FFF706FF9B
S1131FC0009A019B121A8B41089920000A604B6009
S1131FD0290003B0F0BDC046F8B54546DE46574675
S1131FE04E460C03E0B54E00C90F88460D00610A49
S1131FF0440F0C43C70019035800DB0F9B464B0AE0
S1132000510F0B43760D400D1900D200D84500D175
S1132010AEE0351A002D00DCF6E000280FD11343A2
S113202000D1DBE06B1E002B00D037E1BA1A9742D7
S1132030BF41641A7F42E41B0126170024E0C64B0B
S11320409E424DD080231B041943382D00DD07E147
S11320501F2D00DD38E12020431B9A460B0050461B
S11320608340994613004846EB401843030050460A
S11320708240501E8241E9401A43BA1A611A9742BB
S1132080A441170064420C1B230262D56402650A52
S1132090002D00D1DFE0280001F0B0FC0300083B74
S11320A01F2B00DDD2E020223C00D21A9D40D440F8
S11320B09F4025439E4200DDC4E09E1B731C1F2BE2
S11320C000DDF1E0202238002900D21AD8409140E6
S11320D097402C000143781E8741DC4000260F43C3
S11320E07B0709D00F233B40042B05D03B1DBB428B
S11320F0BF417F42E4191F0023022CD5964B0136C1
S11321009E4200D19AE04546944BFF081C4060076C
S1132110760564020743240B760D00212403230B68
S11321200C0D8F4A24051C431440330523435B00E4
S1132130ED075B082B43380019003CBC90469946D8
S1132140A246AB46F8BD6446044300D111E2040044
S113215067467B07C6D145466007FF080743E40886
S11321607D4B9E4230D024037605240B760DD4E7B4
S1132170331A9A46002B78DD002831D076488642FF
S1132180AED08020000401435346382B00DCE9E044
S11321900A43511E8A410021D219BA42BF4109198A
S11321A07C4217000C192302D3D56B4B01369E4297
S11321B000D13AE10120694B1C407B0807401F43D2
S11321C0E007074364088BE723003B4300D1CBE1DE
S11321D08022120314432403240B9EE72E007FE77E
S11321E00800104300D1B4E0581E002800D0DEE0FF
S11321F0BA18BA429B4164185B42E41817000126DE
S11322002302A6D50226D5E7002D6ED1701C400509
S1132210400D012800DCF9E0B81A84468742804169
S1132220E51A40422D1A280200D489E0D71BBA428D
S113223092411C1B5242A51AD84629E74546002460
S113224000276AE7454CF61A2C4049E73D00283838
S1132250854000272EE7380001F0D0FB20301DE731
S11322600A43511E8A41002107E7002B00D0F3E006
S1132270701C43055B0D012B00DCADE0364B98422E
S113228000D1D1E0BA18BA42BF4164187F42E419C0
S1132290E707520817436408060021E72E488542E1
S11322A000D193E01D00D0E629001F3EF140202B11
S11322B000D18DE04022D31A9D402F437D1EAF41B3
S11322C000240F43002644E72B000800203BD8409D
S11322D00300202D00D17DE04020451BA9400A4386
S11322E0511E8A4100211A43C7E6002E50D01A4ECF
S11322F0B04257D080266B429946360434434B464D
S1132300382B00DDD6E01F2B00DD35E12026F51A41
S11323102600AE40B2463E00DE40AC46350056468E
S11323202E436546AF407D1EAF41DC403743D71B8B
S1132330BA4292410C1B5242A41A0600D846A3E6A4
S1132340644667462C4300D0A2E6002500260027F9
S113235006E71E00C4E6C046FF070000FFFF7FFF3C
S1132360FFFF0F801F2B63DC2020C31A0800984056
S11323709C46834653461000D840030058461843F1
S113238063469A40531E9A4153460243D94003E799
S113239026003E4306D0EB439946002BC7D0944E0B
S11323A0B042ACD10C0017000600D84698E6904B1A
S11323B09A450BD08246E7E6002800D09EE018003C
S11323C0104300D1E9E01C001700D846884E87E688
S11323D0002572E7002182E723003B43002E00D052
S11323E0ABE0002B00D1E7E00B00134300D177E60C
S11323F0BA18BA42BF4164187F42E419230200D4D8
S1132400F2E07C4B17001C40060069E620003843CC
S1132410002ED1D100285BD11C00144300D1A8E0C8
S11324201C001700D8465BE606000024002797E648
S113243050460B002038C34099465346202B00D108
S113244095E0402350461B1A99400A43511E8A4185
S11324504B4600211A439FE6002E30D126003E430E
S113246067D0DB439A46002B1CD0614EB04260D04B
S11324705346382B00DD96E01F2B00DD9FE020261D
S1132480F31A26009E409C46B34653463E00DE4067
S113249033005E461E4363469F407B1E9F41534666
S11324A0DC403743BF189742924164185242A41843
S11324B0060078E627437C1EA741002437E74C4EEC
S11324C0B04236D080265B4236049A463443CFE786
S11324D01800104300D103E6B81A84466745AD419D
S11324E0E01A6D42401B050200D42CE6D71BBA4209
S11324F092411C1B5242A41AD846F1E5180010431D
S113250000D163E7F808670707438020E408000365
S1132510044208D0DD08054205D1D2085907114309
S11325200F002C00D8467B0FE4001C43FF00304E04
S1132530D6E50C0017000600D2E5002B38D00B00BE
S1132540134300D142E7F808670707438020E408F3
S113255000030442E7D0CB080342E4D1D208490780
S113256011430F001C00DEE700270024D5E50021FD
S11325706BE700250027F3E54E462500203EF54095
S11325804B462E00202B2DD04025ED1AAC4027437E
S11325907C1EA74100243743C9E680240025240378
S11325A0134E0027DCE527437C1EA741002479E76E
S11325B00C0017000E4E93E50C00170090E55646EC
S11325C02300203EF34099465346202B0ED040234F
S11325D056469B1B9C4027437C1EA7414B46002428
S11325E01F435FE70024D2E71700B2E50024F2E7B7
S11325F0FF070000FFFF7FFFF0B557464546DE4664
S11326004E46E0B54C000E0387B0834692461D004B
S11326108046360B640DCF0F002C4FD06F4B9C427D
S113262035D08023420F1B04F600134333439946ED
S1132630C30098466A4B00269C46002364440393D7
S11326402B031B0B9B466B00ED0F50465B0D019556
S11326505ED0624A934253D05A46D1008022400F42
S1132660120402430A4393465246D1005C4A9446FC
S1132670002263443800684084460290E41A1643FA
S11326800F2E00D9B4E0574BB6009B599F46030068
S1132690334399466CD100239846023308260393AA
S11326A0CEE7CB464146039A0197022A65D1019BA6
S11326B04A4C9C460023002298466BE003003343B7
S11326C099464ED0002E00D1BCE1300001F096F9BD
S11326D003000B3B1C2B00DDACE11D22D31A5A4630
S11326E00100DA4008398E401300334399465B46B3
S11326F08B40984600233C4C0026241A03939FE702
S113270051465A46114329D1002293460232B1E779
S1132710594601431ED05B46002B00D19EE158462A
S113272001F06CF903000B3B1C2B00DD8FE1020070
S11327305946083A91408B461D21CB1A5146D9403F
S11327400B0059460B4351469B469140264B0022B1
S11327501B1A8FE7002301229B468BE75146032275
S113276088E700239846013304260024039367E78F
S11327700323B14603930C2662E7032A00D15CE2EB
S1132780019B012A00D0E4E113409C46002300246D
S11327900022984600211203130B0A0D12051A4356
S11327A02305124C40462240134362465B00D20785
S11327B05B081343190007B03CBC90469946A246F7
S11327C0AB46F0BD002380229C4612039846034C7E
S11327D0E0E70023014C00229846DBE7FF070000F6
S11327E001FCFFFF8C3C00000DFCFFFFFFFF0F808E
S11327F0D94500D939E100D134E1002346464D469C
S11328009A46013C5B460A0E1B021A430B02170C44
S1132810039313041B0C3900280090460193FFF71F
S11328201BF90200019B83465A4328003900914654
S1132830FFF798F9350C09040D43A9450DD95B46FA
S11328404544013BA84500D93AE1A94500D837E100
S113285002235B429C464544E3444B46EB1A390051
S113286018000493FFF7F8F8019B0500434339006F
S113287004989946FFF776F9330409041B0C0B43BB
S1132880994509D943446A1E984500D91AE19945E6
S113289000D817E1023D43444A469B1A5A461204A3
S11328A02A4303999346100C0A0C914609045A468C
S11328B0090C4E460D001204120C45430591514378
S11328C07243704352190E0CB218954203D98025F5
S11328D06D02AC466044150C09041204090C281856
S11328E05218834200D2CEE000D1C8E01D1A5346EC
S11328F09E1AB24592415242AB1A9A46984500D16B
S113290017E139001800FFF7A7F8019B05004343BE
S1132910390050460493FFF725F904980B04310C51
S11329201943884209D941446B1E884500D907E1FF
S1132930884200D804E1023D4144049BCB1A1800AC
S113294039000493FFF788F8019B8246434339001A
S113295004980193FFF706F901980B043104090C5C
S1132960194388420DD953464144013B884500D957
S1132970E8E0884200D8E5E002235B429C464144FB
S1132980E244019B2D04CE1A51462943059D4F462E
S11329902A000B04080C1B0C5A4345437B43784321
S11329A05B19170CFB189D4203D980256D02AC46B8
S11329B060441D0C12041B04120C28189B18864238
S11329C000D293E000D18EE001231943A04BE31819
S11329D0002B00DC99E04A0700D09EE05A46D20161
S11329E006D55A469B4B1A4080239346DB00E318D6
S11329F0994A934268DD0123029A984C1A400023B5
S1132A00944698460022C5E680224B4612031342A0
S1132A100AD05B46134206D11A431203120BAC468A
S1132A2088468E4CB6E64B461A431203120BBC463C
S1132A308A4CAFE603005A46283B9A40002391464D
S1132A40984657E6584600F0D9FF203040E6030088
S1132A505246283B9A400021934677E600F0CEFF89
S1132A6020305FE6884500D2C7E64B46DE075D08A6
S1132A7043465B081E434346DB079A46C2E60025ED
S1132A80924500D333E7039E5946B446E244B24527
S1132A90AD416D424544EB180139984507D298423F
S1132AA000D97FE000D1BCE01D1A8B461FE7984592
S1132AB0FAD1039D5545F2D943468B461D1A16E7B4
S1132AC09B46CAE61500E7E65A46C90852070A4378
S1132AD05B0590465C0D5A46012302995202194047
S1132AE0120B8C4656E6002B00D16FE746444A1E73
S1132AF0B04529D91100864200D065E7039A934274
S1132B0000D061E762E7012149420120C21A382A54
S1132B1021DD029B03409C4638E60F220A40042A2A
S1132B2000D15BE70A00111D914292415242934445
S1132B3054E7474BE318002BE5DD01225242F2E74C
S1132B401D00FAE69A461CE7B04239D86ED011004F
S1132B503AE702933AE71F2A3CDC20239B1A0C0035
S1132B605846994098404B1E99415B46D440D34007
S1132B70204308431A00430709D00F230340042BC2
S1132B8005D00100081D88429B415B42D218130204
S1132B903AD50123029A01241A4000239446984608
S1132BA00022F7E5022149428C46039DE344AC46EA
S1132BB0E244AA45AD416D424544ED182D1A96E60E
S1132BC08A1E03994D008D42894149424144761839
S1132BD003958FE71F204042C31A5846D84003008C
S1132BE0202A28D040205D46821A954029434A1E57
S1132BF091411943072300220B4009D00F230022DF
S1132C000B400800042BBDD1010053075202120BE4
S1132C10C9081943012388460299002419408C46A7
S1132C20B8E55245BED88B46002560E6039D9D421B
S1132C30C6D3110062E70025D8E780225B46120361
S1132C401A43019B1203120B9C468846034CA1E5D0
S1132C50FF030000FFFFFFFEFE070000FF07000068
S1132C60F0B557464546DE464E46E0B50C03984659
S1132C704E00230B87B0070092469B46760DCD0F7E
S1132C80002E6BD06D4B9E4235D080245B46420FA4
S1132C902404DB0014431C43C3009946684BA34639
S1132CA09C46002300276644029343461C035A00B3
S1132CB0DB0F5046240B520D984600D176E05F4B53
S1132CC09A426DD08023410F1B040B435C49E400FE
S1132CD08C461C43C300002062444146B618694038
S1132CE0721C0191944607430F2F00D9B0E0554A56
S1132CF0BF00D25997465B460343994600D087E00C
S1132D0000239B46023308270293CEE742460192F2
S1132D10022867D0032800D10EE2012800D062E126
S1132D20002300240022994601990140CDB20021DC
S1132D3012030B0D120B1B051343434A24051340C6
S1132D401C436400ED0764082C434846210007B087
S1132D503CBC90469946A246AB46F0BD0343994617
S1132D604FD05B46002B00D189E1584600F046FE67
S1132D7003000B3B1C2B00DD7AE11D22D31A3A0021
S1132D8001005C46DA4008398C4013008F4023432D
S1132D909B46B94600232D4E0027361A029384E73A
S1132DA0534623432AD10024022096E75346234363
S1132DB020D0002C00D157E1200000F01FFE0300BA
S1132DC00B3B1C2B00DD49E11D21CB1A51460200AF
S1132DD0D9405346083A944093400C431B4A121A74
S1132DE000207AE70125019B144C1D40002300229A
S1132DF099469CE70024002201206EE753460320F5
S1132E006BE700239B4601330427002602934CE71B
S1132E10032381460C27029347E7802200230025E1
S1132E2012039946054C82E75C464B4602986FE7CD
S1132E305C464B46019502986AE7C046FF070000CE
S1132E4001FCFFFFCC3C0000FFFF0F800DFCFFFFE7
S1132E504A464946170C1A0C1B041B0C080419009B
S1132E60000C41431500884619007D4379430395BE
S1132E7089462900150045434D44029545462D0CCD
S1132E80AA46029D5544A94506D98A46802149028D
S1132E908946CA4451460391290C049141460904C8
S1132EA02D04090C88462900250C24044144240CD3
S1132EB00591210041438846210079438A466843AD
S1132EC0414650448146080C48446F43824503D927
S1132ED08021490289464F44010C894639004944FE
S1132EE0029141460F0404993F0C88460004C0191E
S1132EF080444146049159460F0C0904090C884644
S1132F0059438A4639005143894641464A4351460A
S1132F10090C8B467B43D2185A44934203D980232D
S1132F205B029B46D94451460904090C8A46414632
S1132F3061437C43130C12044B445244A1468A4619
S1132F403C0041466C434D4351464D440F0C7D19A2
S1132F50A94503D98021490288464444049F039922
S1132F60B84641448B468345804141428846514698
S1132F7008042F04000C3F1858460299101889467B
S1132F80904292414F44BA46524299469346C244B3
S1132F90D144CB448F42BF41C245894199459B41AD
S1132FA0934592417F4249422D0C52420F435B426A
S1132FB013437F19FF185B463C19DB0D059A640225
S1132FC01C43430213435D1EAB415A46C00D0343E9
S1132FD052021343E20156D501205A080340134319
S1132FE0E207134364085A48604400284DDD5A0739
S1132FF009D00F221A40042A05D01A1D9A429B4177
S11330005B42E4181300E20104D58020514AC00059
S113301014406044504A904200DDE3E60125DB0899
S113302062071A436402019B9146220B4405640D16
S11330301D407CE6802259461203114208D01442F6
S113304006D122431203120B45469946434C6EE6C1
S11330505B461A431203120B404C68E603005446C5
S1133060283B9C400023B9E600F0C8FC2030A6E6CB
S11330700300283B9F400023BB4699468AE600F0A4
S1133080BDFC203074E6B446ADE701252A1A382A7F
S113309006DD019B00241D4000230022994646E6DC
S11330A01F2A21DC20252000AD1A1E00AB40A840B9
S11330B0D6405D1EAB4130431843D440430709D08A
S11330C00F230340042B05D00300181D98429B4195
S11330D05B42E418230221D50125019B01241D40F4
S11330E000230022994622E61F2521006D42281A5A
S11330F0C1400800202A1DD05F35AA1A94402343FA
S11331005C1EA341072503431D400022002D09D066
S11331100F2200241A401800042AD6D103006507A0
S11331206402220BDB082B4301259946019B0024F2
S11331301D40FCE50024E2E780220125120322431E
S113314001991203120B0D409946044CEFE5C04659
S1133150FF030000FFFFFFFEFE070000FF07000063
S1133160F0B54646D6464F460C03C0B5CD0F4E00CB
S1133170610A440F0C43C1005800400D84468A463E
S11331800F001903500F490A0143C648760DA8469B
S1133190DB0FD200844500D1D8E001204340AB428C
S11331A000D1A6E06046351A002D00DC05E10028B8
S11331B010D10B00134300D1D7E06B1E002B00D0BD
S11331C04BE153469F1ABA458041641A4042241A7F
S11331D001261EE0B34B9E4248D080231B041943B2
S11331E0382D00DD19E11F2D00DD4CE120230F00F7
S11331F05B1B10009A409F40E840531E9A41E940EF
S1133200074317435346DF1B611ABA45A44164427E
S11332100C1B230200D4C5E06402650A002D00D112
S1133220F6E0280000F0EAFB0300083B1F2B00DD5A
S1133230E9E020223C00D21A9D40D4409F4025431F
S11332409E4200DDDBE09E1B731C1F2B00DD0AE1A8
S113325020223800D21A290097402C009140D840EF
S11332607A1E9741DC40002601430F437B0709D0B7
S11332700F233B40042B05D03B1DBB42BF417F4283
S1133280E4191F00230225D5864B01369E4200D146
S1133290AFE0854B01251C4043466207FF086402EA
S11332A076051743240B760D1D4000212403230BC0
S11332B00C0D7E4A24051C431440330523435B0054
S11332C0ED075B082B43380019001CBC9046994657
S11332D0A246F0BD012543466207FF081743E408F0
S11332E01D40704B9E4236D024037605240B760D88
S11332F0DBE76346F31A002B00DC94E06046002809
S113330035D068488642B1D080273F043943382BF2
S113331000DCFDE00A43170000217A1E9741574460
S113332057458041091944420C1923023AD55D4B93
S113333001369E4200D14BE101225B4B1C407B08CD
S113334017401F43E207174364088FE70800104340
S113335000D024E721E723003B4300D1B9E18022D8
S1133360120314432403240B9FE72E007EE7080076
S1133370104300D1CAE0581E8446002800D0E7E07C
S113338052445245804164184042241817000126D3
S1133390230207D50226CFE764462C4300D1B3E1CC
S11333A02C0067467B0700D062E76307FF081F43D2
S11333B001254346E4081D4093E7002D78D1751C90
S11333C06D056D0D012D00DCF2E05046801A82453A
S11333D0BF41651A7F42ED1B8446280200D48CE06D
S11333E05046171ABA4292410C1B5542651B984627
S11333F014E70125434600241D40002755E72A4CC5
S1133400F61A2C4032E73D0028388540002717E79C
S1133410380000F0F3FA203006E70A4317000021D1
S11334207A1E9741EEE6002B00D0E5E0731C9C4623
S11334305B055B0D012B00DC9FE01A4B9C4500D122
S1133440C5E0524452458041641840422418E707BD
S1133450520817436408664608E71248854200D1BB
S113346085E01D00BCE629001F3EF140202B00D161
S11334707FE04022D31A9D402F437D1EAF4100249C
S11334800F4300268EE72B000F00203BDF40202D4A
S113349071D040235D1BA9400A43511E8A4100217B
S11334A01743AFE6FF070000FFFF7FFFFFFF0F801A
S11334B0002E3ED0B34EB44545D0802636046D422E
S11334C03443382D00DDA8E01F2D00DD1FE1202648
S11334D027005046761BB740E84007435046B040AB
S11334E0461EB041EC403843171ABA4292410C1BB5
S11334F05242A41A664698468BE6644667462C43B5
S113350000D08BE6002500260027EAE61E00ADE683
S11335101F2B60DC2027F81A0F0084468740100018
S1133520D840074360468240501E8241D940174329
S1133530F5E626005046064305D0ED43002DD3D0D2
S1133540904EB445BDD10C001700664698468DE6F2
S11335508C4883420BD06346D9E6002D00D096E018
S11335600800104300D1E2E00C0017009846854E95
S11335707CE6002580E700218EE7230050460343C4
S1133580002E00D0A8E0002B00D1DEE00B00134396
S113359000D16BE6524452458041641840422418DD
S11335A01700230200D4FDE6774B66461C405DE617
S11335B0250050460543002ECFD1002D4FD10C00DD
S11335C0144300D1A0E00C00170098464EE666466E
S11335D00024002785E61F000800203FF84007006C
S11335E0202B00D18EE04020C31A99400A43511E7B
S11335F08A410021174392E6002E14D1260050463A
S1133600064362D0DB43002B5CD18718974292417A
S113361064185242A418664687E650462043441E66
S1133620A041002460E7574EB4454ED080263604AE
S11336305B423443382B00DD7FE01F2B00DD8BE041
S1133640202627005046F61AB740D8400743504674
S1133650B040461EB0410743DC40BF18D6E70D001A
S1133660154300D102E65046801A8245BF41651ACF
S11336707F42ED1B8446280200D48DE65046171A7B
S1133680BA4292410C1B5242A41A9846EEE50D0030
S1133690154300D16BE750466707C00807438020F5
S11336A0E4080003044207D0CD08054204D12C00ED
S11336B09846D70849070F437B0FE4001C43FF00DB
S11336C0304ED3E52F4EB445B4D10C0017006646F6
S11336D0CCE500270024E8E5002B39D00B00134388
S11336E000D144E7C008670707438020E4080003CB
S11336F00442E1D0CB080342DED1D70849070F4387
S11337001C00D9E7002171E700250027E9E52E0018
S11337102700203EF740202D2FD04026751BAC40BB
S113372050462043441EA04100243843DCE6802454
S113373000252403134E0027D3E5504620430700F9
S1133740781E87410024BF1860E70C0017008DE540
S11337500C0017000B4E89E51E002700203EF740A1
S1133760202B0CD04026F31A9C4050462043441E84
S1133770A04107430024BF1848E70024D0E70024F1
S1133780F3E7C046FF070000FFFF7FFF30B5134D8E
S11337900A034B00120B5B0DC90F0024AB4210DD72
S11337A00F4CA3420FDC80240E4D64032243ED1A18
S11337B01F2D0BDD0C48C31ADA405442002900D1F6
S11337C01400200030BD094BCC18FAE7084CE8403F
S11337D0A44663449A400243EFE7C046FE03000058
S11337E01D0400003304000013040000FFFFFF7FEA
S11337F0EDFBFFFF70B5002830D0C317C4185C4040
S1133800C50F200000F0FAF8174B184A1B1AD21AF9
S11338101F2A18DD164AD21A9440002224035B059D
S1133820240B5B0D0021100024030A0D240B120548
S11338302243104C1B05224013435B00ED075B0839
S11338402B43190070BD210091400A000B21081A76
S1133850C4405B052403240B5B0DE3E70025002330
S113386000240022DEE7C0461E04000033040000EA
S113387013040000FFFF0F8010B5041E28D000F0D1
S1133880BDF8154B154A1B1AD21A1F2A15DD144A06
S1133890D21A9440002224035B05240B5B0D002103
S11338A0100024030A0D240B120522430D4C1B05A2
S11338B0224013435B00590810BD210091400A00C7
S11338C00B21081AC4405B052403240B5B0DE6E7B7
S11338D0002300240022E2E71E0400003304000059
S11338E013040000FFFF0F80F0B54C00640D0B03C0
S11338F0621C450F5B0A52052B43C90FC500520DCC
S1133900012A28DD3A4AA618FE2E1BDC002E3EDDD5
S113391080010200501E82416D0F2A43DB001343D5
S11339205A0704D00F221A40042A00D004338022FC
S1133930D2041A405AD00136FF2E03D09B015B0AF1
S1133940F4B201E0FF2400235802E405400AC90749
S113395020430843F0BD002C07D01D43F2D0802043
S1133960DB0080040343FF26DAE72B4303D005235F
S1133970DB08FF2C03D05B025B0AE4B2E4E7002B14
S113398032D08020C00303435B025B0ADCE73200D1
S1133990173214DB80221E2712041343BF1B1F2F70
S11339A00FDC144A944664442A00A5402E00A34028
S11339B0751EAE41FA40334313430026B0E700249A
S11339C0D5E702225242961B1A00F240202F09D05A
S11339D0094884466444A3402B435D1EAB41002642
S11339E013439DE70023F7E70023ADE73400BFE767
S11339F080FCFFFF82FCFFFFA2FCFFFF1C210123D0
S1133A001B04984201D3000C10391B0A984201D3BD
S1133A10000A08391B09984201D30009043902A29B
S1133A20105C40187047C046040302020101010102
S1133A30000000000000000010B5002903D1FFF7CA
S1133A40DDFF203002E0081CFFF7D8FF10BDC046A0
S1133A50F0B54E465746DE464546E0B50600002022
S1133A600F0083B019008146002F00DA8CE0002992
S1133A7000DA80E034003D0092469846BB4269D8A3
S1133A8066D041465046FFF7D7FF834639003000E1
S1133A90FFF7D2FF5B461B1A9C46203B9B4600D592
S1133AA087E05146584681400B00514660468140AC
S1133AB00A00BB4200D972E06ED034003D00594682
S1133AC0A41A9D41002900DA8AE000210020012681
S1133AD00090019159468E400196614601268E4020
S1133AE061460096002961D0D90756080E435F0845
S1133AF06146012200230CE0AF4201D1A6420AD85C
S1133B00A41BBD4124196D410139A4185D4100294C
S1133B1006D0AF42F0D9013924196D410029F8D1FA
S1133B205B460098019900196941002B4DDB2E007A
S1133B30DE4063462C00DC405B46002B5BDB34003C
S1133B409C4023006446A6403200801A994103E059
S1133B50B24296D9002000214B46002B04D003002A
S1133B600C0000215842A14103B03CBC9046994648
S1133B70A246AB46F0BD4946C94310008946190028
S1133B80002342428B4175E734003D000138002791
S1133B906642AF4181466AE7B14200D88DE7002111
S1133BA0002000900191614600299DD1009801995F
S1133BB0D2E7624640462023514690409B1AD940A2
S1133BC00300009100990B436FE7624620239B1A80
S1133BD02A009A40260013006246D6401E43A8E7F6
S1133BE0614620260127761A00200021F740009024
S1133BF00191019771E762462023350094409B1A96
S1133C00DD4023002B439DE770B500260C4D0D4C81
S1133C10641BA410A64209D1002600F077F80A4DCF
S1133C200A4C641BA410A64205D170BDB300EB5826
S1133C3098470136EEE7B300EB5898470136F2E7B0
S1133C40183D0000183D0000183D00001C3D000018
S1133C50002310B59A4200D110BDCC5CC45401338A
S1133C60F8E703008218934200D1704719700133BA
S1133C70F9E700000000004200040042000800428E
S1133C80000C00420010004200040043F027000032
S1133C90D22700008C270000AA2600008C270000F1
S1133CA0C42700008C270000AA260000D2270000A9
S1133CB0D2270000C4270000AA260000A226000084
S1133CC0A2260000A2260000082A0000502E0000B0
S1133CD0102D0000102D00000C2D0000282E0000D7
S1133CE0282E00001A2E00000C2D0000282E0000A3
S1133CF01A2E0000282E00000C2D0000302E00008B
S1133D00302E0000302E000034300000F8B5C046DC
S1133D10F8BC08BC9E467047DD000000F8B5C046FC
S10F3D20F8BC08BC9E467047B5000000CB
S10B3D2CF4E0FF7F0100000038
S1133D34BFF35F8F01380028FAD1704701000000F7
S903187173
